{
	"contracts/Lottery.sol": {
		"LotteryContract": {
			"abi": [
				{
					"inputs": [],
					"stateMutability": "nonpayable",
					"type": "constructor"
				},
				{
					"inputs": [],
					"name": "EnterPlayer",
					"outputs": [],
					"stateMutability": "payable",
					"type": "function"
				},
				{
					"inputs": [],
					"name": "Manager",
					"outputs": [
						{
							"internalType": "address",
							"name": "",
							"type": "address"
						}
					],
					"stateMutability": "view",
					"type": "function"
				},
				{
					"inputs": [
						{
							"internalType": "uint256",
							"name": "",
							"type": "uint256"
						}
					],
					"name": "palyer",
					"outputs": [
						{
							"internalType": "address payable",
							"name": "",
							"type": "address"
						}
					],
					"stateMutability": "view",
					"type": "function"
				}
			],
			"devdoc": {
				"kind": "dev",
				"methods": {},
				"version": 1
			},
			"evm": {
				"assembly": "    /* \"contracts/Lottery.sol\":57:811  contract LotteryContract {... */\n  mstore(0x40, 0x80)\n    /* \"contracts/Lottery.sol\":155:206  constructor() {... */\n  callvalue\n  dup1\n  iszero\n  tag_1\n  jumpi\n  0x00\n  dup1\n  revert\ntag_1:\n  pop\n    /* \"contracts/Lottery.sol\":189:199  msg.sender */\n  caller\n    /* \"contracts/Lottery.sol\":179:186  Manager */\n  0x00\n  dup1\n    /* \"contracts/Lottery.sol\":179:199  Manager = msg.sender */\n  0x0100\n  exp\n  dup2\n  sload\n  dup2\n  0xffffffffffffffffffffffffffffffffffffffff\n  mul\n  not\n  and\n  swap1\n  dup4\n  0xffffffffffffffffffffffffffffffffffffffff\n  and\n  mul\n  or\n  swap1\n  sstore\n  pop\n    /* \"contracts/Lottery.sol\":57:811  contract LotteryContract {... */\n  dataSize(sub_0)\n  dup1\n  dataOffset(sub_0)\n  0x00\n  codecopy\n  0x00\n  return\nstop\n\nsub_0: assembly {\n        /* \"contracts/Lottery.sol\":57:811  contract LotteryContract {... */\n      mstore(0x40, 0x80)\n      jumpi(tag_1, lt(calldatasize, 0x04))\n      shr(0xe0, calldataload(0x00))\n      dup1\n      0x50bed4a1\n      eq\n      tag_2\n      jumpi\n      dup1\n      0x78357e53\n      eq\n      tag_3\n      jumpi\n      dup1\n      0xf8edfc32\n      eq\n      tag_4\n      jumpi\n    tag_1:\n      0x00\n      dup1\n      revert\n        /* \"contracts/Lottery.sol\":451:809  function EnterPlayer() public payable {... */\n    tag_2:\n      tag_5\n      tag_6\n      jump\t// in\n    tag_5:\n      stop\n        /* \"contracts/Lottery.sol\":88:110  address public Manager */\n    tag_3:\n      callvalue\n      dup1\n      iszero\n      tag_7\n      jumpi\n      0x00\n      dup1\n      revert\n    tag_7:\n      pop\n      tag_8\n      tag_9\n      jump\t// in\n    tag_8:\n      mload(0x40)\n      tag_10\n      swap2\n      swap1\n      tag_11\n      jump\t// in\n    tag_10:\n      mload(0x40)\n      dup1\n      swap2\n      sub\n      swap1\n      return\n        /* \"contracts/Lottery.sol\":117:148  address payable[] public palyer */\n    tag_4:\n      callvalue\n      dup1\n      iszero\n      tag_12\n      jumpi\n      0x00\n      dup1\n      revert\n    tag_12:\n      pop\n      tag_13\n      0x04\n      dup1\n      calldatasize\n      sub\n      dup2\n      add\n      swap1\n      tag_14\n      swap2\n      swap1\n      tag_15\n      jump\t// in\n    tag_14:\n      tag_16\n      jump\t// in\n    tag_13:\n      mload(0x40)\n      tag_17\n      swap2\n      swap1\n      tag_18\n      jump\t// in\n    tag_17:\n      mload(0x40)\n      dup1\n      swap2\n      sub\n      swap1\n      return\n        /* \"contracts/Lottery.sol\":451:809  function EnterPlayer() public payable {... */\n    tag_6:\n        /* \"contracts/Lottery.sol\":534:541  Manager */\n      0x00\n      dup1\n      sload\n      swap1\n      0x0100\n      exp\n      swap1\n      div\n      0xffffffffffffffffffffffffffffffffffffffff\n      and\n        /* \"contracts/Lottery.sol\":520:541  msg.sender == Manager */\n      0xffffffffffffffffffffffffffffffffffffffff\n      and\n        /* \"contracts/Lottery.sol\":520:530  msg.sender */\n      caller\n        /* \"contracts/Lottery.sol\":520:541  msg.sender == Manager */\n      0xffffffffffffffffffffffffffffffffffffffff\n      and\n      eq\n        /* \"contracts/Lottery.sol\":499:607  require(... */\n      tag_20\n      jumpi\n      mload(0x40)\n      0x08c379a000000000000000000000000000000000000000000000000000000000\n      dup2\n      mstore\n      0x04\n      add\n      tag_21\n      swap1\n      tag_22\n      jump\t// in\n    tag_21:\n      mload(0x40)\n      dup1\n      swap2\n      sub\n      swap1\n      revert\n    tag_20:\n        /* \"contracts/Lottery.sol\":646:651  false */\n      0x00\n        /* \"contracts/Lottery.sol\":626:651  alreadyEntered() == false */\n      iszero\n      iszero\n        /* \"contracts/Lottery.sol\":626:642  alreadyEntered() */\n      tag_23\n        /* \"contracts/Lottery.sol\":626:640  alreadyEntered */\n      tag_24\n        /* \"contracts/Lottery.sol\":626:642  alreadyEntered() */\n      jump\t// in\n    tag_23:\n        /* \"contracts/Lottery.sol\":626:651  alreadyEntered() == false */\n      iszero\n      iszero\n      eq\n        /* \"contracts/Lottery.sol\":618:678  require(alreadyEntered() == false, \"Player already Entered\") */\n      tag_25\n      jumpi\n      mload(0x40)\n      0x08c379a000000000000000000000000000000000000000000000000000000000\n      dup2\n      mstore\n      0x04\n      add\n      tag_26\n      swap1\n      tag_27\n      jump\t// in\n    tag_26:\n      mload(0x40)\n      dup1\n      swap2\n      sub\n      swap1\n      revert\n    tag_25:\n        /* \"contracts/Lottery.sol\":710:717  1 ether */\n      0x0de0b6b3a7640000\n        /* \"contracts/Lottery.sol\":697:706  msg.value */\n      callvalue\n        /* \"contracts/Lottery.sol\":697:717  msg.value >= 1 ether */\n      lt\n      iszero\n        /* \"contracts/Lottery.sol\":689:759  require(msg.value >= 1 ether, \"Minimum About required to participate\") */\n      tag_28\n      jumpi\n      mload(0x40)\n      0x08c379a000000000000000000000000000000000000000000000000000000000\n      dup2\n      mstore\n      0x04\n      add\n      tag_29\n      swap1\n      tag_30\n      jump\t// in\n    tag_29:\n      mload(0x40)\n      dup1\n      swap2\n      sub\n      swap1\n      revert\n    tag_28:\n        /* \"contracts/Lottery.sol\":770:776  palyer */\n      0x01\n        /* \"contracts/Lottery.sol\":790:800  msg.sender */\n      caller\n        /* \"contracts/Lottery.sol\":770:802  palyer.push(payable(msg.sender)) */\n      swap1\n      dup1\n      0x01\n      dup2\n      sload\n      add\n      dup1\n      dup3\n      sstore\n      dup1\n      swap2\n      pop\n      pop\n      0x01\n      swap1\n      sub\n      swap1\n      0x00\n      mstore\n      keccak256(0x00, 0x20)\n      add\n      0x00\n      swap1\n      swap2\n      swap1\n      swap2\n      swap1\n      swap2\n      0x0100\n      exp\n      dup2\n      sload\n      dup2\n      0xffffffffffffffffffffffffffffffffffffffff\n      mul\n      not\n      and\n      swap1\n      dup4\n      0xffffffffffffffffffffffffffffffffffffffff\n      and\n      mul\n      or\n      swap1\n      sstore\n      pop\n        /* \"contracts/Lottery.sol\":451:809  function EnterPlayer() public payable {... */\n      jump\t// out\n        /* \"contracts/Lottery.sol\":88:110  address public Manager */\n    tag_9:\n      0x00\n      dup1\n      sload\n      swap1\n      0x0100\n      exp\n      swap1\n      div\n      0xffffffffffffffffffffffffffffffffffffffff\n      and\n      dup2\n      jump\t// out\n        /* \"contracts/Lottery.sol\":117:148  address payable[] public palyer */\n    tag_16:\n      0x01\n      dup2\n      dup2\n      sload\n      dup2\n      lt\n      tag_32\n      jumpi\n      0x00\n      dup1\n      revert\n    tag_32:\n      swap1\n      0x00\n      mstore\n      keccak256(0x00, 0x20)\n      add\n      0x00\n      swap2\n      pop\n      sload\n      swap1\n      0x0100\n      exp\n      swap1\n      div\n      0xffffffffffffffffffffffffffffffffffffffff\n      and\n      dup2\n      jump\t// out\n        /* \"contracts/Lottery.sol\":212:445  function alreadyEntered() private view returns (bool) {... */\n    tag_24:\n        /* \"contracts/Lottery.sol\":260:264  bool */\n      0x00\n        /* \"contracts/Lottery.sol\":281:290  uint256 i */\n      dup1\n        /* \"contracts/Lottery.sol\":293:294  0 */\n      0x00\n        /* \"contracts/Lottery.sol\":281:294  uint256 i = 0 */\n      swap1\n      pop\n        /* \"contracts/Lottery.sol\":276:417  for (uint256 i = 0; i < palyer.length; i++) {... */\n    tag_35:\n        /* \"contracts/Lottery.sol\":300:306  palyer */\n      0x01\n        /* \"contracts/Lottery.sol\":300:313  palyer.length */\n      dup1\n      sload\n      swap1\n      pop\n        /* \"contracts/Lottery.sol\":296:297  i */\n      dup2\n        /* \"contracts/Lottery.sol\":296:313  i < palyer.length */\n      lt\n        /* \"contracts/Lottery.sol\":276:417  for (uint256 i = 0; i < palyer.length; i++) {... */\n      iszero\n      tag_36\n      jumpi\n        /* \"contracts/Lottery.sol\":352:358  palyer */\n      0x01\n        /* \"contracts/Lottery.sol\":359:360  i */\n      dup2\n        /* \"contracts/Lottery.sol\":352:361  palyer[i] */\n      dup2\n      sload\n      dup2\n      lt\n      tag_38\n      jumpi\n      tag_39\n      tag_40\n      jump\t// in\n    tag_39:\n    tag_38:\n      swap1\n      0x00\n      mstore\n      keccak256(0x00, 0x20)\n      add\n      0x00\n      swap1\n      sload\n      swap1\n      0x0100\n      exp\n      swap1\n      div\n      0xffffffffffffffffffffffffffffffffffffffff\n      and\n        /* \"contracts/Lottery.sol\":338:361  msg.sender == palyer[i] */\n      0xffffffffffffffffffffffffffffffffffffffff\n      and\n        /* \"contracts/Lottery.sol\":338:348  msg.sender */\n      caller\n        /* \"contracts/Lottery.sol\":338:361  msg.sender == palyer[i] */\n      0xffffffffffffffffffffffffffffffffffffffff\n      and\n      sub\n        /* \"contracts/Lottery.sol\":334:407  if (msg.sender == palyer[i]) {... */\n      tag_42\n      jumpi\n        /* \"contracts/Lottery.sol\":388:392  true */\n      0x01\n        /* \"contracts/Lottery.sol\":381:392  return true */\n      swap2\n      pop\n      pop\n      jump(tag_34)\n        /* \"contracts/Lottery.sol\":334:407  if (msg.sender == palyer[i]) {... */\n    tag_42:\n        /* \"contracts/Lottery.sol\":315:318  i++ */\n      dup1\n      dup1\n      0x01\n      add\n      swap2\n      pop\n      pop\n        /* \"contracts/Lottery.sol\":276:417  for (uint256 i = 0; i < palyer.length; i++) {... */\n      jump(tag_35)\n    tag_36:\n      pop\n        /* \"contracts/Lottery.sol\":433:438  false */\n      0x00\n        /* \"contracts/Lottery.sol\":426:438  return false */\n      swap1\n      pop\n        /* \"contracts/Lottery.sol\":212:445  function alreadyEntered() private view returns (bool) {... */\n    tag_34:\n      swap1\n      jump\t// out\n        /* \"#utility.yul\":7:133   */\n    tag_43:\n        /* \"#utility.yul\":44:51   */\n      0x00\n        /* \"#utility.yul\":84:126   */\n      0xffffffffffffffffffffffffffffffffffffffff\n        /* \"#utility.yul\":77:82   */\n      dup3\n        /* \"#utility.yul\":73:127   */\n      and\n        /* \"#utility.yul\":62:127   */\n      swap1\n      pop\n        /* \"#utility.yul\":7:133   */\n      swap2\n      swap1\n      pop\n      jump\t// out\n        /* \"#utility.yul\":139:235   */\n    tag_44:\n        /* \"#utility.yul\":176:183   */\n      0x00\n        /* \"#utility.yul\":205:229   */\n      tag_64\n        /* \"#utility.yul\":223:228   */\n      dup3\n        /* \"#utility.yul\":205:229   */\n      tag_43\n      jump\t// in\n    tag_64:\n        /* \"#utility.yul\":194:229   */\n      swap1\n      pop\n        /* \"#utility.yul\":139:235   */\n      swap2\n      swap1\n      pop\n      jump\t// out\n        /* \"#utility.yul\":241:359   */\n    tag_45:\n        /* \"#utility.yul\":328:352   */\n      tag_66\n        /* \"#utility.yul\":346:351   */\n      dup2\n        /* \"#utility.yul\":328:352   */\n      tag_44\n      jump\t// in\n    tag_66:\n        /* \"#utility.yul\":323:326   */\n      dup3\n        /* \"#utility.yul\":316:353   */\n      mstore\n        /* \"#utility.yul\":241:359   */\n      pop\n      pop\n      jump\t// out\n        /* \"#utility.yul\":365:587   */\n    tag_11:\n        /* \"#utility.yul\":458:462   */\n      0x00\n        /* \"#utility.yul\":496:498   */\n      0x20\n        /* \"#utility.yul\":485:494   */\n      dup3\n        /* \"#utility.yul\":481:499   */\n      add\n        /* \"#utility.yul\":473:499   */\n      swap1\n      pop\n        /* \"#utility.yul\":509:580   */\n      tag_68\n        /* \"#utility.yul\":577:578   */\n      0x00\n        /* \"#utility.yul\":566:575   */\n      dup4\n        /* \"#utility.yul\":562:579   */\n      add\n        /* \"#utility.yul\":553:559   */\n      dup5\n        /* \"#utility.yul\":509:580   */\n      tag_45\n      jump\t// in\n    tag_68:\n        /* \"#utility.yul\":365:587   */\n      swap3\n      swap2\n      pop\n      pop\n      jump\t// out\n        /* \"#utility.yul\":674:791   */\n    tag_47:\n        /* \"#utility.yul\":783:784   */\n      0x00\n        /* \"#utility.yul\":780:781   */\n      dup1\n        /* \"#utility.yul\":773:785   */\n      revert\n        /* \"#utility.yul\":920:997   */\n    tag_49:\n        /* \"#utility.yul\":957:964   */\n      0x00\n        /* \"#utility.yul\":986:991   */\n      dup2\n        /* \"#utility.yul\":975:991   */\n      swap1\n      pop\n        /* \"#utility.yul\":920:997   */\n      swap2\n      swap1\n      pop\n      jump\t// out\n        /* \"#utility.yul\":1003:1125   */\n    tag_50:\n        /* \"#utility.yul\":1076:1100   */\n      tag_74\n        /* \"#utility.yul\":1094:1099   */\n      dup2\n        /* \"#utility.yul\":1076:1100   */\n      tag_49\n      jump\t// in\n    tag_74:\n        /* \"#utility.yul\":1069:1074   */\n      dup2\n        /* \"#utility.yul\":1066:1101   */\n      eq\n        /* \"#utility.yul\":1056:1119   */\n      tag_75\n      jumpi\n        /* \"#utility.yul\":1115:1116   */\n      0x00\n        /* \"#utility.yul\":1112:1113   */\n      dup1\n        /* \"#utility.yul\":1105:1117   */\n      revert\n        /* \"#utility.yul\":1056:1119   */\n    tag_75:\n        /* \"#utility.yul\":1003:1125   */\n      pop\n      jump\t// out\n        /* \"#utility.yul\":1131:1270   */\n    tag_51:\n        /* \"#utility.yul\":1177:1182   */\n      0x00\n        /* \"#utility.yul\":1215:1221   */\n      dup2\n        /* \"#utility.yul\":1202:1222   */\n      calldataload\n        /* \"#utility.yul\":1193:1222   */\n      swap1\n      pop\n        /* \"#utility.yul\":1231:1264   */\n      tag_77\n        /* \"#utility.yul\":1258:1263   */\n      dup2\n        /* \"#utility.yul\":1231:1264   */\n      tag_50\n      jump\t// in\n    tag_77:\n        /* \"#utility.yul\":1131:1270   */\n      swap3\n      swap2\n      pop\n      pop\n      jump\t// out\n        /* \"#utility.yul\":1276:1605   */\n    tag_15:\n        /* \"#utility.yul\":1335:1341   */\n      0x00\n        /* \"#utility.yul\":1384:1386   */\n      0x20\n        /* \"#utility.yul\":1372:1381   */\n      dup3\n        /* \"#utility.yul\":1363:1370   */\n      dup5\n        /* \"#utility.yul\":1359:1382   */\n      sub\n        /* \"#utility.yul\":1355:1387   */\n      slt\n        /* \"#utility.yul\":1352:1471   */\n      iszero\n      tag_79\n      jumpi\n        /* \"#utility.yul\":1390:1469   */\n      tag_80\n      tag_47\n      jump\t// in\n    tag_80:\n        /* \"#utility.yul\":1352:1471   */\n    tag_79:\n        /* \"#utility.yul\":1510:1511   */\n      0x00\n        /* \"#utility.yul\":1535:1588   */\n      tag_81\n        /* \"#utility.yul\":1580:1587   */\n      dup5\n        /* \"#utility.yul\":1571:1577   */\n      dup3\n        /* \"#utility.yul\":1560:1569   */\n      dup6\n        /* \"#utility.yul\":1556:1578   */\n      add\n        /* \"#utility.yul\":1535:1588   */\n      tag_51\n      jump\t// in\n    tag_81:\n        /* \"#utility.yul\":1525:1588   */\n      swap2\n      pop\n        /* \"#utility.yul\":1481:1598   */\n      pop\n        /* \"#utility.yul\":1276:1605   */\n      swap3\n      swap2\n      pop\n      pop\n      jump\t// out\n        /* \"#utility.yul\":1611:1715   */\n    tag_52:\n        /* \"#utility.yul\":1656:1663   */\n      0x00\n        /* \"#utility.yul\":1685:1709   */\n      tag_83\n        /* \"#utility.yul\":1703:1708   */\n      dup3\n        /* \"#utility.yul\":1685:1709   */\n      tag_43\n      jump\t// in\n    tag_83:\n        /* \"#utility.yul\":1674:1709   */\n      swap1\n      pop\n        /* \"#utility.yul\":1611:1715   */\n      swap2\n      swap1\n      pop\n      jump\t// out\n        /* \"#utility.yul\":1721:1863   */\n    tag_53:\n        /* \"#utility.yul\":1824:1856   */\n      tag_85\n        /* \"#utility.yul\":1850:1855   */\n      dup2\n        /* \"#utility.yul\":1824:1856   */\n      tag_52\n      jump\t// in\n    tag_85:\n        /* \"#utility.yul\":1819:1822   */\n      dup3\n        /* \"#utility.yul\":1812:1857   */\n      mstore\n        /* \"#utility.yul\":1721:1863   */\n      pop\n      pop\n      jump\t// out\n        /* \"#utility.yul\":1869:2123   */\n    tag_18:\n        /* \"#utility.yul\":1978:1982   */\n      0x00\n        /* \"#utility.yul\":2016:2018   */\n      0x20\n        /* \"#utility.yul\":2005:2014   */\n      dup3\n        /* \"#utility.yul\":2001:2019   */\n      add\n        /* \"#utility.yul\":1993:2019   */\n      swap1\n      pop\n        /* \"#utility.yul\":2029:2116   */\n      tag_87\n        /* \"#utility.yul\":2113:2114   */\n      0x00\n        /* \"#utility.yul\":2102:2111   */\n      dup4\n        /* \"#utility.yul\":2098:2115   */\n      add\n        /* \"#utility.yul\":2089:2095   */\n      dup5\n        /* \"#utility.yul\":2029:2116   */\n      tag_53\n      jump\t// in\n    tag_87:\n        /* \"#utility.yul\":1869:2123   */\n      swap3\n      swap2\n      pop\n      pop\n      jump\t// out\n        /* \"#utility.yul\":2129:2298   */\n    tag_54:\n        /* \"#utility.yul\":2213:2224   */\n      0x00\n        /* \"#utility.yul\":2247:2253   */\n      dup3\n        /* \"#utility.yul\":2242:2245   */\n      dup3\n        /* \"#utility.yul\":2235:2254   */\n      mstore\n        /* \"#utility.yul\":2287:2291   */\n      0x20\n        /* \"#utility.yul\":2282:2285   */\n      dup3\n        /* \"#utility.yul\":2278:2292   */\n      add\n        /* \"#utility.yul\":2263:2292   */\n      swap1\n      pop\n        /* \"#utility.yul\":2129:2298   */\n      swap3\n      swap2\n      pop\n      pop\n      jump\t// out\n        /* \"#utility.yul\":2304:2531   */\n    tag_55:\n        /* \"#utility.yul\":2444:2478   */\n      0x4d616e61676572206973206e6f7420417574686f726f7a656420746f20506172\n        /* \"#utility.yul\":2440:2441   */\n      0x00\n        /* \"#utility.yul\":2432:2438   */\n      dup3\n        /* \"#utility.yul\":2428:2442   */\n      add\n        /* \"#utility.yul\":2421:2479   */\n      mstore\n        /* \"#utility.yul\":2513:2523   */\n      0x7469636970617465000000000000000000000000000000000000000000000000\n        /* \"#utility.yul\":2508:2510   */\n      0x20\n        /* \"#utility.yul\":2500:2506   */\n      dup3\n        /* \"#utility.yul\":2496:2511   */\n      add\n        /* \"#utility.yul\":2489:2524   */\n      mstore\n        /* \"#utility.yul\":2304:2531   */\n      pop\n      jump\t// out\n        /* \"#utility.yul\":2537:2903   */\n    tag_56:\n        /* \"#utility.yul\":2679:2682   */\n      0x00\n        /* \"#utility.yul\":2700:2767   */\n      tag_91\n        /* \"#utility.yul\":2764:2766   */\n      0x28\n        /* \"#utility.yul\":2759:2762   */\n      dup4\n        /* \"#utility.yul\":2700:2767   */\n      tag_54\n      jump\t// in\n    tag_91:\n        /* \"#utility.yul\":2693:2767   */\n      swap2\n      pop\n        /* \"#utility.yul\":2776:2869   */\n      tag_92\n        /* \"#utility.yul\":2865:2868   */\n      dup3\n        /* \"#utility.yul\":2776:2869   */\n      tag_55\n      jump\t// in\n    tag_92:\n        /* \"#utility.yul\":2894:2896   */\n      0x40\n        /* \"#utility.yul\":2889:2892   */\n      dup3\n        /* \"#utility.yul\":2885:2897   */\n      add\n        /* \"#utility.yul\":2878:2897   */\n      swap1\n      pop\n        /* \"#utility.yul\":2537:2903   */\n      swap2\n      swap1\n      pop\n      jump\t// out\n        /* \"#utility.yul\":2909:3328   */\n    tag_22:\n        /* \"#utility.yul\":3075:3079   */\n      0x00\n        /* \"#utility.yul\":3113:3115   */\n      0x20\n        /* \"#utility.yul\":3102:3111   */\n      dup3\n        /* \"#utility.yul\":3098:3116   */\n      add\n        /* \"#utility.yul\":3090:3116   */\n      swap1\n      pop\n        /* \"#utility.yul\":3162:3171   */\n      dup2\n        /* \"#utility.yul\":3156:3160   */\n      dup2\n        /* \"#utility.yul\":3152:3172   */\n      sub\n        /* \"#utility.yul\":3148:3149   */\n      0x00\n        /* \"#utility.yul\":3137:3146   */\n      dup4\n        /* \"#utility.yul\":3133:3150   */\n      add\n        /* \"#utility.yul\":3126:3173   */\n      mstore\n        /* \"#utility.yul\":3190:3321   */\n      tag_94\n        /* \"#utility.yul\":3316:3320   */\n      dup2\n        /* \"#utility.yul\":3190:3321   */\n      tag_56\n      jump\t// in\n    tag_94:\n        /* \"#utility.yul\":3182:3321   */\n      swap1\n      pop\n        /* \"#utility.yul\":2909:3328   */\n      swap2\n      swap1\n      pop\n      jump\t// out\n        /* \"#utility.yul\":3334:3506   */\n    tag_57:\n        /* \"#utility.yul\":3474:3498   */\n      0x506c6179657220616c726561647920456e746572656400000000000000000000\n        /* \"#utility.yul\":3470:3471   */\n      0x00\n        /* \"#utility.yul\":3462:3468   */\n      dup3\n        /* \"#utility.yul\":3458:3472   */\n      add\n        /* \"#utility.yul\":3451:3499   */\n      mstore\n        /* \"#utility.yul\":3334:3506   */\n      pop\n      jump\t// out\n        /* \"#utility.yul\":3512:3878   */\n    tag_58:\n        /* \"#utility.yul\":3654:3657   */\n      0x00\n        /* \"#utility.yul\":3675:3742   */\n      tag_97\n        /* \"#utility.yul\":3739:3741   */\n      0x16\n        /* \"#utility.yul\":3734:3737   */\n      dup4\n        /* \"#utility.yul\":3675:3742   */\n      tag_54\n      jump\t// in\n    tag_97:\n        /* \"#utility.yul\":3668:3742   */\n      swap2\n      pop\n        /* \"#utility.yul\":3751:3844   */\n      tag_98\n        /* \"#utility.yul\":3840:3843   */\n      dup3\n        /* \"#utility.yul\":3751:3844   */\n      tag_57\n      jump\t// in\n    tag_98:\n        /* \"#utility.yul\":3869:3871   */\n      0x20\n        /* \"#utility.yul\":3864:3867   */\n      dup3\n        /* \"#utility.yul\":3860:3872   */\n      add\n        /* \"#utility.yul\":3853:3872   */\n      swap1\n      pop\n        /* \"#utility.yul\":3512:3878   */\n      swap2\n      swap1\n      pop\n      jump\t// out\n        /* \"#utility.yul\":3884:4303   */\n    tag_27:\n        /* \"#utility.yul\":4050:4054   */\n      0x00\n        /* \"#utility.yul\":4088:4090   */\n      0x20\n        /* \"#utility.yul\":4077:4086   */\n      dup3\n        /* \"#utility.yul\":4073:4091   */\n      add\n        /* \"#utility.yul\":4065:4091   */\n      swap1\n      pop\n        /* \"#utility.yul\":4137:4146   */\n      dup2\n        /* \"#utility.yul\":4131:4135   */\n      dup2\n        /* \"#utility.yul\":4127:4147   */\n      sub\n        /* \"#utility.yul\":4123:4124   */\n      0x00\n        /* \"#utility.yul\":4112:4121   */\n      dup4\n        /* \"#utility.yul\":4108:4125   */\n      add\n        /* \"#utility.yul\":4101:4148   */\n      mstore\n        /* \"#utility.yul\":4165:4296   */\n      tag_100\n        /* \"#utility.yul\":4291:4295   */\n      dup2\n        /* \"#utility.yul\":4165:4296   */\n      tag_58\n      jump\t// in\n    tag_100:\n        /* \"#utility.yul\":4157:4296   */\n      swap1\n      pop\n        /* \"#utility.yul\":3884:4303   */\n      swap2\n      swap1\n      pop\n      jump\t// out\n        /* \"#utility.yul\":4309:4533   */\n    tag_59:\n        /* \"#utility.yul\":4449:4483   */\n      0x4d696e696d756d2041626f757420726571756972656420746f20706172746963\n        /* \"#utility.yul\":4445:4446   */\n      0x00\n        /* \"#utility.yul\":4437:4443   */\n      dup3\n        /* \"#utility.yul\":4433:4447   */\n      add\n        /* \"#utility.yul\":4426:4484   */\n      mstore\n        /* \"#utility.yul\":4518:4525   */\n      0x6970617465000000000000000000000000000000000000000000000000000000\n        /* \"#utility.yul\":4513:4515   */\n      0x20\n        /* \"#utility.yul\":4505:4511   */\n      dup3\n        /* \"#utility.yul\":4501:4516   */\n      add\n        /* \"#utility.yul\":4494:4526   */\n      mstore\n        /* \"#utility.yul\":4309:4533   */\n      pop\n      jump\t// out\n        /* \"#utility.yul\":4539:4905   */\n    tag_60:\n        /* \"#utility.yul\":4681:4684   */\n      0x00\n        /* \"#utility.yul\":4702:4769   */\n      tag_103\n        /* \"#utility.yul\":4766:4768   */\n      0x25\n        /* \"#utility.yul\":4761:4764   */\n      dup4\n        /* \"#utility.yul\":4702:4769   */\n      tag_54\n      jump\t// in\n    tag_103:\n        /* \"#utility.yul\":4695:4769   */\n      swap2\n      pop\n        /* \"#utility.yul\":4778:4871   */\n      tag_104\n        /* \"#utility.yul\":4867:4870   */\n      dup3\n        /* \"#utility.yul\":4778:4871   */\n      tag_59\n      jump\t// in\n    tag_104:\n        /* \"#utility.yul\":4896:4898   */\n      0x40\n        /* \"#utility.yul\":4891:4894   */\n      dup3\n        /* \"#utility.yul\":4887:4899   */\n      add\n        /* \"#utility.yul\":4880:4899   */\n      swap1\n      pop\n        /* \"#utility.yul\":4539:4905   */\n      swap2\n      swap1\n      pop\n      jump\t// out\n        /* \"#utility.yul\":4911:5330   */\n    tag_30:\n        /* \"#utility.yul\":5077:5081   */\n      0x00\n        /* \"#utility.yul\":5115:5117   */\n      0x20\n        /* \"#utility.yul\":5104:5113   */\n      dup3\n        /* \"#utility.yul\":5100:5118   */\n      add\n        /* \"#utility.yul\":5092:5118   */\n      swap1\n      pop\n        /* \"#utility.yul\":5164:5173   */\n      dup2\n        /* \"#utility.yul\":5158:5162   */\n      dup2\n        /* \"#utility.yul\":5154:5174   */\n      sub\n        /* \"#utility.yul\":5150:5151   */\n      0x00\n        /* \"#utility.yul\":5139:5148   */\n      dup4\n        /* \"#utility.yul\":5135:5152   */\n      add\n        /* \"#utility.yul\":5128:5175   */\n      mstore\n        /* \"#utility.yul\":5192:5323   */\n      tag_106\n        /* \"#utility.yul\":5318:5322   */\n      dup2\n        /* \"#utility.yul\":5192:5323   */\n      tag_60\n      jump\t// in\n    tag_106:\n        /* \"#utility.yul\":5184:5323   */\n      swap1\n      pop\n        /* \"#utility.yul\":4911:5330   */\n      swap2\n      swap1\n      pop\n      jump\t// out\n        /* \"#utility.yul\":5336:5516   */\n    tag_40:\n        /* \"#utility.yul\":5384:5461   */\n      0x4e487b7100000000000000000000000000000000000000000000000000000000\n        /* \"#utility.yul\":5381:5382   */\n      0x00\n        /* \"#utility.yul\":5374:5462   */\n      mstore\n        /* \"#utility.yul\":5481:5485   */\n      0x32\n        /* \"#utility.yul\":5478:5479   */\n      0x04\n        /* \"#utility.yul\":5471:5486   */\n      mstore\n        /* \"#utility.yul\":5505:5509   */\n      0x24\n        /* \"#utility.yul\":5502:5503   */\n      0x00\n        /* \"#utility.yul\":5495:5510   */\n      revert\n\n    auxdata: 0xa264697066735822122040fd36a18b995d53a74509266960031844da71ee758a9d26fc0b4da8f5d9d58f64736f6c634300081a0033\n}\n",
				"bytecode": {
					"linkReferences": {},
					"object": "6080604052348015600e575f80fd5b50335f806101000a81548173ffffffffffffffffffffffffffffffffffffffff021916908373ffffffffffffffffffffffffffffffffffffffff1602179055506106168061005b5f395ff3fe608060405260043610610033575f3560e01c806350bed4a11461003757806378357e5314610041578063f8edfc321461006b575b5f80fd5b61003f6100a7565b005b34801561004c575f80fd5b5061005561022e565b604051610062919061036b565b60405180910390f35b348015610076575f80fd5b50610091600480360381019061008c91906103bb565b610251565b60405161009e9190610406565b60405180910390f35b5f8054906101000a900473ffffffffffffffffffffffffffffffffffffffff1673ffffffffffffffffffffffffffffffffffffffff163373ffffffffffffffffffffffffffffffffffffffff1614610134576040517f08c379a000000000000000000000000000000000000000000000000000000000815260040161012b9061049f565b60405180910390fd5b5f151561013f61028c565b151514610181576040517f08c379a000000000000000000000000000000000000000000000000000000000815260040161017890610507565b60405180910390fd5b670de0b6b3a76400003410156101cc576040517f08c379a00000000000000000000000000000000000000000000000000000000081526004016101c390610595565b60405180910390fd5b600133908060018154018082558091505060019003905f5260205f20015f9091909190916101000a81548173ffffffffffffffffffffffffffffffffffffffff021916908373ffffffffffffffffffffffffffffffffffffffff160217905550565b5f8054906101000a900473ffffffffffffffffffffffffffffffffffffffff1681565b60018181548110610260575f80fd5b905f5260205f20015f915054906101000a900473ffffffffffffffffffffffffffffffffffffffff1681565b5f805f90505b60018054905081101561032457600181815481106102b3576102b26105b3565b5b905f5260205f20015f9054906101000a900473ffffffffffffffffffffffffffffffffffffffff1673ffffffffffffffffffffffffffffffffffffffff163373ffffffffffffffffffffffffffffffffffffffff1603610317576001915050610329565b8080600101915050610292565b505f90505b90565b5f73ffffffffffffffffffffffffffffffffffffffff82169050919050565b5f6103558261032c565b9050919050565b6103658161034b565b82525050565b5f60208201905061037e5f83018461035c565b92915050565b5f80fd5b5f819050919050565b61039a81610388565b81146103a4575f80fd5b50565b5f813590506103b581610391565b92915050565b5f602082840312156103d0576103cf610384565b5b5f6103dd848285016103a7565b91505092915050565b5f6103f08261032c565b9050919050565b610400816103e6565b82525050565b5f6020820190506104195f8301846103f7565b92915050565b5f82825260208201905092915050565b7f4d616e61676572206973206e6f7420417574686f726f7a656420746f205061725f8201527f7469636970617465000000000000000000000000000000000000000000000000602082015250565b5f61048960288361041f565b91506104948261042f565b604082019050919050565b5f6020820190508181035f8301526104b68161047d565b9050919050565b7f506c6179657220616c726561647920456e7465726564000000000000000000005f82015250565b5f6104f160168361041f565b91506104fc826104bd565b602082019050919050565b5f6020820190508181035f83015261051e816104e5565b9050919050565b7f4d696e696d756d2041626f757420726571756972656420746f207061727469635f8201527f6970617465000000000000000000000000000000000000000000000000000000602082015250565b5f61057f60258361041f565b915061058a82610525565b604082019050919050565b5f6020820190508181035f8301526105ac81610573565b9050919050565b7f4e487b71000000000000000000000000000000000000000000000000000000005f52603260045260245ffdfea264697066735822122040fd36a18b995d53a74509266960031844da71ee758a9d26fc0b4da8f5d9d58f64736f6c634300081a0033",
					"opcodes": "PUSH1 0x80 PUSH1 0x40 MSTORE CALLVALUE DUP1 ISZERO PUSH1 0xE JUMPI PUSH0 DUP1 REVERT JUMPDEST POP CALLER PUSH0 DUP1 PUSH2 0x100 EXP DUP2 SLOAD DUP2 PUSH20 0xFFFFFFFFFFFFFFFFFFFFFFFFFFFFFFFFFFFFFFFF MUL NOT AND SWAP1 DUP4 PUSH20 0xFFFFFFFFFFFFFFFFFFFFFFFFFFFFFFFFFFFFFFFF AND MUL OR SWAP1 SSTORE POP PUSH2 0x616 DUP1 PUSH2 0x5B PUSH0 CODECOPY PUSH0 RETURN INVALID PUSH1 0x80 PUSH1 0x40 MSTORE PUSH1 0x4 CALLDATASIZE LT PUSH2 0x33 JUMPI PUSH0 CALLDATALOAD PUSH1 0xE0 SHR DUP1 PUSH4 0x50BED4A1 EQ PUSH2 0x37 JUMPI DUP1 PUSH4 0x78357E53 EQ PUSH2 0x41 JUMPI DUP1 PUSH4 0xF8EDFC32 EQ PUSH2 0x6B JUMPI JUMPDEST PUSH0 DUP1 REVERT JUMPDEST PUSH2 0x3F PUSH2 0xA7 JUMP JUMPDEST STOP JUMPDEST CALLVALUE DUP1 ISZERO PUSH2 0x4C JUMPI PUSH0 DUP1 REVERT JUMPDEST POP PUSH2 0x55 PUSH2 0x22E JUMP JUMPDEST PUSH1 0x40 MLOAD PUSH2 0x62 SWAP2 SWAP1 PUSH2 0x36B JUMP JUMPDEST PUSH1 0x40 MLOAD DUP1 SWAP2 SUB SWAP1 RETURN JUMPDEST CALLVALUE DUP1 ISZERO PUSH2 0x76 JUMPI PUSH0 DUP1 REVERT JUMPDEST POP PUSH2 0x91 PUSH1 0x4 DUP1 CALLDATASIZE SUB DUP2 ADD SWAP1 PUSH2 0x8C SWAP2 SWAP1 PUSH2 0x3BB JUMP JUMPDEST PUSH2 0x251 JUMP JUMPDEST PUSH1 0x40 MLOAD PUSH2 0x9E SWAP2 SWAP1 PUSH2 0x406 JUMP JUMPDEST PUSH1 0x40 MLOAD DUP1 SWAP2 SUB SWAP1 RETURN JUMPDEST PUSH0 DUP1 SLOAD SWAP1 PUSH2 0x100 EXP SWAP1 DIV PUSH20 0xFFFFFFFFFFFFFFFFFFFFFFFFFFFFFFFFFFFFFFFF AND PUSH20 0xFFFFFFFFFFFFFFFFFFFFFFFFFFFFFFFFFFFFFFFF AND CALLER PUSH20 0xFFFFFFFFFFFFFFFFFFFFFFFFFFFFFFFFFFFFFFFF AND EQ PUSH2 0x134 JUMPI PUSH1 0x40 MLOAD PUSH32 0x8C379A000000000000000000000000000000000000000000000000000000000 DUP2 MSTORE PUSH1 0x4 ADD PUSH2 0x12B SWAP1 PUSH2 0x49F JUMP JUMPDEST PUSH1 0x40 MLOAD DUP1 SWAP2 SUB SWAP1 REVERT JUMPDEST PUSH0 ISZERO ISZERO PUSH2 0x13F PUSH2 0x28C JUMP JUMPDEST ISZERO ISZERO EQ PUSH2 0x181 JUMPI PUSH1 0x40 MLOAD PUSH32 0x8C379A000000000000000000000000000000000000000000000000000000000 DUP2 MSTORE PUSH1 0x4 ADD PUSH2 0x178 SWAP1 PUSH2 0x507 JUMP JUMPDEST PUSH1 0x40 MLOAD DUP1 SWAP2 SUB SWAP1 REVERT JUMPDEST PUSH8 0xDE0B6B3A7640000 CALLVALUE LT ISZERO PUSH2 0x1CC JUMPI PUSH1 0x40 MLOAD PUSH32 0x8C379A000000000000000000000000000000000000000000000000000000000 DUP2 MSTORE PUSH1 0x4 ADD PUSH2 0x1C3 SWAP1 PUSH2 0x595 JUMP JUMPDEST PUSH1 0x40 MLOAD DUP1 SWAP2 SUB SWAP1 REVERT JUMPDEST PUSH1 0x1 CALLER SWAP1 DUP1 PUSH1 0x1 DUP2 SLOAD ADD DUP1 DUP3 SSTORE DUP1 SWAP2 POP POP PUSH1 0x1 SWAP1 SUB SWAP1 PUSH0 MSTORE PUSH1 0x20 PUSH0 KECCAK256 ADD PUSH0 SWAP1 SWAP2 SWAP1 SWAP2 SWAP1 SWAP2 PUSH2 0x100 EXP DUP2 SLOAD DUP2 PUSH20 0xFFFFFFFFFFFFFFFFFFFFFFFFFFFFFFFFFFFFFFFF MUL NOT AND SWAP1 DUP4 PUSH20 0xFFFFFFFFFFFFFFFFFFFFFFFFFFFFFFFFFFFFFFFF AND MUL OR SWAP1 SSTORE POP JUMP JUMPDEST PUSH0 DUP1 SLOAD SWAP1 PUSH2 0x100 EXP SWAP1 DIV PUSH20 0xFFFFFFFFFFFFFFFFFFFFFFFFFFFFFFFFFFFFFFFF AND DUP2 JUMP JUMPDEST PUSH1 0x1 DUP2 DUP2 SLOAD DUP2 LT PUSH2 0x260 JUMPI PUSH0 DUP1 REVERT JUMPDEST SWAP1 PUSH0 MSTORE PUSH1 0x20 PUSH0 KECCAK256 ADD PUSH0 SWAP2 POP SLOAD SWAP1 PUSH2 0x100 EXP SWAP1 DIV PUSH20 0xFFFFFFFFFFFFFFFFFFFFFFFFFFFFFFFFFFFFFFFF AND DUP2 JUMP JUMPDEST PUSH0 DUP1 PUSH0 SWAP1 POP JUMPDEST PUSH1 0x1 DUP1 SLOAD SWAP1 POP DUP2 LT ISZERO PUSH2 0x324 JUMPI PUSH1 0x1 DUP2 DUP2 SLOAD DUP2 LT PUSH2 0x2B3 JUMPI PUSH2 0x2B2 PUSH2 0x5B3 JUMP JUMPDEST JUMPDEST SWAP1 PUSH0 MSTORE PUSH1 0x20 PUSH0 KECCAK256 ADD PUSH0 SWAP1 SLOAD SWAP1 PUSH2 0x100 EXP SWAP1 DIV PUSH20 0xFFFFFFFFFFFFFFFFFFFFFFFFFFFFFFFFFFFFFFFF AND PUSH20 0xFFFFFFFFFFFFFFFFFFFFFFFFFFFFFFFFFFFFFFFF AND CALLER PUSH20 0xFFFFFFFFFFFFFFFFFFFFFFFFFFFFFFFFFFFFFFFF AND SUB PUSH2 0x317 JUMPI PUSH1 0x1 SWAP2 POP POP PUSH2 0x329 JUMP JUMPDEST DUP1 DUP1 PUSH1 0x1 ADD SWAP2 POP POP PUSH2 0x292 JUMP JUMPDEST POP PUSH0 SWAP1 POP JUMPDEST SWAP1 JUMP JUMPDEST PUSH0 PUSH20 0xFFFFFFFFFFFFFFFFFFFFFFFFFFFFFFFFFFFFFFFF DUP3 AND SWAP1 POP SWAP2 SWAP1 POP JUMP JUMPDEST PUSH0 PUSH2 0x355 DUP3 PUSH2 0x32C JUMP JUMPDEST SWAP1 POP SWAP2 SWAP1 POP JUMP JUMPDEST PUSH2 0x365 DUP2 PUSH2 0x34B JUMP JUMPDEST DUP3 MSTORE POP POP JUMP JUMPDEST PUSH0 PUSH1 0x20 DUP3 ADD SWAP1 POP PUSH2 0x37E PUSH0 DUP4 ADD DUP5 PUSH2 0x35C JUMP JUMPDEST SWAP3 SWAP2 POP POP JUMP JUMPDEST PUSH0 DUP1 REVERT JUMPDEST PUSH0 DUP2 SWAP1 POP SWAP2 SWAP1 POP JUMP JUMPDEST PUSH2 0x39A DUP2 PUSH2 0x388 JUMP JUMPDEST DUP2 EQ PUSH2 0x3A4 JUMPI PUSH0 DUP1 REVERT JUMPDEST POP JUMP JUMPDEST PUSH0 DUP2 CALLDATALOAD SWAP1 POP PUSH2 0x3B5 DUP2 PUSH2 0x391 JUMP JUMPDEST SWAP3 SWAP2 POP POP JUMP JUMPDEST PUSH0 PUSH1 0x20 DUP3 DUP5 SUB SLT ISZERO PUSH2 0x3D0 JUMPI PUSH2 0x3CF PUSH2 0x384 JUMP JUMPDEST JUMPDEST PUSH0 PUSH2 0x3DD DUP5 DUP3 DUP6 ADD PUSH2 0x3A7 JUMP JUMPDEST SWAP2 POP POP SWAP3 SWAP2 POP POP JUMP JUMPDEST PUSH0 PUSH2 0x3F0 DUP3 PUSH2 0x32C JUMP JUMPDEST SWAP1 POP SWAP2 SWAP1 POP JUMP JUMPDEST PUSH2 0x400 DUP2 PUSH2 0x3E6 JUMP JUMPDEST DUP3 MSTORE POP POP JUMP JUMPDEST PUSH0 PUSH1 0x20 DUP3 ADD SWAP1 POP PUSH2 0x419 PUSH0 DUP4 ADD DUP5 PUSH2 0x3F7 JUMP JUMPDEST SWAP3 SWAP2 POP POP JUMP JUMPDEST PUSH0 DUP3 DUP3 MSTORE PUSH1 0x20 DUP3 ADD SWAP1 POP SWAP3 SWAP2 POP POP JUMP JUMPDEST PUSH32 0x4D616E61676572206973206E6F7420417574686F726F7A656420746F20506172 PUSH0 DUP3 ADD MSTORE PUSH32 0x7469636970617465000000000000000000000000000000000000000000000000 PUSH1 0x20 DUP3 ADD MSTORE POP JUMP JUMPDEST PUSH0 PUSH2 0x489 PUSH1 0x28 DUP4 PUSH2 0x41F JUMP JUMPDEST SWAP2 POP PUSH2 0x494 DUP3 PUSH2 0x42F JUMP JUMPDEST PUSH1 0x40 DUP3 ADD SWAP1 POP SWAP2 SWAP1 POP JUMP JUMPDEST PUSH0 PUSH1 0x20 DUP3 ADD SWAP1 POP DUP2 DUP2 SUB PUSH0 DUP4 ADD MSTORE PUSH2 0x4B6 DUP2 PUSH2 0x47D JUMP JUMPDEST SWAP1 POP SWAP2 SWAP1 POP JUMP JUMPDEST PUSH32 0x506C6179657220616C726561647920456E746572656400000000000000000000 PUSH0 DUP3 ADD MSTORE POP JUMP JUMPDEST PUSH0 PUSH2 0x4F1 PUSH1 0x16 DUP4 PUSH2 0x41F JUMP JUMPDEST SWAP2 POP PUSH2 0x4FC DUP3 PUSH2 0x4BD JUMP JUMPDEST PUSH1 0x20 DUP3 ADD SWAP1 POP SWAP2 SWAP1 POP JUMP JUMPDEST PUSH0 PUSH1 0x20 DUP3 ADD SWAP1 POP DUP2 DUP2 SUB PUSH0 DUP4 ADD MSTORE PUSH2 0x51E DUP2 PUSH2 0x4E5 JUMP JUMPDEST SWAP1 POP SWAP2 SWAP1 POP JUMP JUMPDEST PUSH32 0x4D696E696D756D2041626F757420726571756972656420746F20706172746963 PUSH0 DUP3 ADD MSTORE PUSH32 0x6970617465000000000000000000000000000000000000000000000000000000 PUSH1 0x20 DUP3 ADD MSTORE POP JUMP JUMPDEST PUSH0 PUSH2 0x57F PUSH1 0x25 DUP4 PUSH2 0x41F JUMP JUMPDEST SWAP2 POP PUSH2 0x58A DUP3 PUSH2 0x525 JUMP JUMPDEST PUSH1 0x40 DUP3 ADD SWAP1 POP SWAP2 SWAP1 POP JUMP JUMPDEST PUSH0 PUSH1 0x20 DUP3 ADD SWAP1 POP DUP2 DUP2 SUB PUSH0 DUP4 ADD MSTORE PUSH2 0x5AC DUP2 PUSH2 0x573 JUMP JUMPDEST SWAP1 POP SWAP2 SWAP1 POP JUMP JUMPDEST PUSH32 0x4E487B7100000000000000000000000000000000000000000000000000000000 PUSH0 MSTORE PUSH1 0x32 PUSH1 0x4 MSTORE PUSH1 0x24 PUSH0 REVERT INVALID LOG2 PUSH5 0x6970667358 0x22 SLT KECCAK256 BLOCKHASH REVERT CALLDATASIZE LOG1 DUP12 SWAP10 TSTORE MSTORE8 0xA7 GASLIMIT MULMOD 0x26 PUSH10 0x60031844DA71EE758A9D 0x26 0xFC SIGNEXTEND 0x4D 0xA8 CREATE2 0xD9 0xD5 DUP16 PUSH5 0x736F6C6343 STOP ADDMOD BYTE STOP CALLER "
				},
				"gasEstimates": {
					"creation": {
						"codeDepositCost": "311600",
						"executionCost": "24612",
						"totalCost": "336212"
					},
					"external": {
						"EnterPlayer()": "infinite",
						"Manager()": "2505",
						"palyer(uint256)": "4966"
					},
					"internal": {
						"alreadyEntered()": "infinite"
					}
				},
				"methodIdentifiers": {
					"EnterPlayer()": "50bed4a1",
					"Manager()": "78357e53",
					"palyer(uint256)": "f8edfc32"
				}
			},
			"storageLayout": {
				"storage": [
					{
						"astId": 3,
						"contract": "contracts/Lottery.sol:LotteryContract",
						"label": "Manager",
						"offset": 0,
						"slot": "0",
						"type": "t_address"
					},
					{
						"astId": 6,
						"contract": "contracts/Lottery.sol:LotteryContract",
						"label": "palyer",
						"offset": 0,
						"slot": "1",
						"type": "t_array(t_address_payable)dyn_storage"
					}
				],
				"types": {
					"t_address": {
						"encoding": "inplace",
						"label": "address",
						"numberOfBytes": "20"
					},
					"t_address_payable": {
						"encoding": "inplace",
						"label": "address payable",
						"numberOfBytes": "20"
					},
					"t_array(t_address_payable)dyn_storage": {
						"base": "t_address_payable",
						"encoding": "dynamic_array",
						"label": "address payable[]",
						"numberOfBytes": "32"
					}
				}
			},
			"userdoc": {
				"kind": "user",
				"methods": {},
				"version": 1
			}
		}
	}
}