{
	"contracts/Lottery.sol": {
		"LotteryContract": {
			"abi": [
				{
					"inputs": [],
					"stateMutability": "nonpayable",
					"type": "constructor"
				},
				{
					"inputs": [],
					"name": "EnterPlayer",
					"outputs": [],
					"stateMutability": "payable",
					"type": "function"
				},
				{
					"inputs": [],
					"name": "Manager",
					"outputs": [
						{
							"internalType": "address",
							"name": "",
							"type": "address"
						}
					],
					"stateMutability": "view",
					"type": "function"
				},
				{
					"inputs": [],
					"name": "PickWinnerInLottery",
					"outputs": [],
					"stateMutability": "nonpayable",
					"type": "function"
				},
				{
					"inputs": [],
					"name": "getPlayer",
					"outputs": [
						{
							"internalType": "address payable[]",
							"name": "",
							"type": "address[]"
						}
					],
					"stateMutability": "view",
					"type": "function"
				},
				{
					"inputs": [
						{
							"internalType": "uint256",
							"name": "",
							"type": "uint256"
						}
					],
					"name": "palyer",
					"outputs": [
						{
							"internalType": "address payable",
							"name": "",
							"type": "address"
						}
					],
					"stateMutability": "view",
					"type": "function"
				}
			],
			"devdoc": {
				"kind": "dev",
				"methods": {},
				"version": 1
			},
			"evm": {
				"assembly": "    /* \"contracts/Lottery.sol\":57:1468  contract LotteryContract {... */\n  mstore(0x40, 0x80)\n    /* \"contracts/Lottery.sol\":155:206  constructor() {... */\n  callvalue\n  dup1\n  iszero\n  tag_1\n  jumpi\n  0x00\n  dup1\n  revert\ntag_1:\n  pop\n    /* \"contracts/Lottery.sol\":189:199  msg.sender */\n  caller\n    /* \"contracts/Lottery.sol\":179:186  Manager */\n  0x00\n  dup1\n    /* \"contracts/Lottery.sol\":179:199  Manager = msg.sender */\n  0x0100\n  exp\n  dup2\n  sload\n  dup2\n  0xffffffffffffffffffffffffffffffffffffffff\n  mul\n  not\n  and\n  swap1\n  dup4\n  0xffffffffffffffffffffffffffffffffffffffff\n  and\n  mul\n  or\n  swap1\n  sstore\n  pop\n    /* \"contracts/Lottery.sol\":57:1468  contract LotteryContract {... */\n  dataSize(sub_0)\n  dup1\n  dataOffset(sub_0)\n  0x00\n  codecopy\n  0x00\n  return\nstop\n\nsub_0: assembly {\n        /* \"contracts/Lottery.sol\":57:1468  contract LotteryContract {... */\n      mstore(0x40, 0x80)\n      jumpi(tag_1, lt(calldatasize, 0x04))\n      shr(0xe0, calldataload(0x00))\n      dup1\n      0x19974b37\n      eq\n      tag_2\n      jumpi\n      dup1\n      0x3308f42d\n      eq\n      tag_3\n      jumpi\n      dup1\n      0x50bed4a1\n      eq\n      tag_4\n      jumpi\n      dup1\n      0x78357e53\n      eq\n      tag_5\n      jumpi\n      dup1\n      0xf8edfc32\n      eq\n      tag_6\n      jumpi\n    tag_1:\n      0x00\n      dup1\n      revert\n        /* \"contracts/Lottery.sol\":1024:1362  function PickWinnerInLottery() public {... */\n    tag_2:\n      callvalue\n      dup1\n      iszero\n      tag_7\n      jumpi\n      0x00\n      dup1\n      revert\n    tag_7:\n      pop\n      tag_8\n      tag_9\n      jump\t// in\n    tag_8:\n      stop\n        /* \"contracts/Lottery.sol\":1368:1466  function getPlayer() public view returns (address payable[] memory) {... */\n    tag_3:\n      callvalue\n      dup1\n      iszero\n      tag_10\n      jumpi\n      0x00\n      dup1\n      revert\n    tag_10:\n      pop\n      tag_11\n      tag_12\n      jump\t// in\n    tag_11:\n      mload(0x40)\n      tag_13\n      swap2\n      swap1\n      tag_14\n      jump\t// in\n    tag_13:\n      mload(0x40)\n      dup1\n      swap2\n      sub\n      swap1\n      return\n        /* \"contracts/Lottery.sol\":451:809  function EnterPlayer() public payable {... */\n    tag_4:\n      tag_15\n      tag_16\n      jump\t// in\n    tag_15:\n      stop\n        /* \"contracts/Lottery.sol\":88:110  address public Manager */\n    tag_5:\n      callvalue\n      dup1\n      iszero\n      tag_17\n      jumpi\n      0x00\n      dup1\n      revert\n    tag_17:\n      pop\n      tag_18\n      tag_19\n      jump\t// in\n    tag_18:\n      mload(0x40)\n      tag_20\n      swap2\n      swap1\n      tag_21\n      jump\t// in\n    tag_20:\n      mload(0x40)\n      dup1\n      swap2\n      sub\n      swap1\n      return\n        /* \"contracts/Lottery.sol\":117:148  address payable[] public palyer */\n    tag_6:\n      callvalue\n      dup1\n      iszero\n      tag_22\n      jumpi\n      0x00\n      dup1\n      revert\n    tag_22:\n      pop\n      tag_23\n      0x04\n      dup1\n      calldatasize\n      sub\n      dup2\n      add\n      swap1\n      tag_24\n      swap2\n      swap1\n      tag_25\n      jump\t// in\n    tag_24:\n      tag_26\n      jump\t// in\n    tag_23:\n      mload(0x40)\n      tag_27\n      swap2\n      swap1\n      tag_28\n      jump\t// in\n    tag_27:\n      mload(0x40)\n      dup1\n      swap2\n      sub\n      swap1\n      return\n        /* \"contracts/Lottery.sol\":1024:1362  function PickWinnerInLottery() public {... */\n    tag_9:\n        /* \"contracts/Lottery.sol\":1094:1101  Manager */\n      0x00\n      dup1\n      sload\n      swap1\n      0x0100\n      exp\n      swap1\n      div\n      0xffffffffffffffffffffffffffffffffffffffff\n      and\n        /* \"contracts/Lottery.sol\":1080:1101  msg.sender == Manager */\n      0xffffffffffffffffffffffffffffffffffffffff\n      and\n        /* \"contracts/Lottery.sol\":1080:1090  msg.sender */\n      caller\n        /* \"contracts/Lottery.sol\":1080:1101  msg.sender == Manager */\n      0xffffffffffffffffffffffffffffffffffffffff\n      and\n      eq\n        /* \"contracts/Lottery.sol\":1072:1141  require(msg.sender == Manager, \"Only mananger can pickup the winner\") */\n      tag_30\n      jumpi\n      mload(0x40)\n      0x08c379a000000000000000000000000000000000000000000000000000000000\n      dup2\n      mstore\n      0x04\n      add\n      tag_31\n      swap1\n      tag_32\n      jump\t// in\n    tag_31:\n      mload(0x40)\n      dup1\n      swap2\n      sub\n      swap1\n      revert\n    tag_30:\n        /* \"contracts/Lottery.sol\":1151:1164  uint256 index */\n      0x00\n        /* \"contracts/Lottery.sol\":1193:1199  palyer */\n      0x01\n        /* \"contracts/Lottery.sol\":1193:1206  palyer.length */\n      dup1\n      sload\n      swap1\n      pop\n        /* \"contracts/Lottery.sol\":1167:1190  RandomnumberGenerator() */\n      tag_33\n        /* \"contracts/Lottery.sol\":1167:1188  RandomnumberGenerator */\n      tag_34\n        /* \"contracts/Lottery.sol\":1167:1190  RandomnumberGenerator() */\n      jump\t// in\n    tag_33:\n        /* \"contracts/Lottery.sol\":1167:1206  RandomnumberGenerator() % palyer.length */\n      tag_35\n      swap2\n      swap1\n      tag_36\n      jump\t// in\n    tag_35:\n        /* \"contracts/Lottery.sol\":1151:1206  uint256 index = RandomnumberGenerator() % palyer.length */\n      swap1\n      pop\n        /* \"contracts/Lottery.sol\":1216:1239  address contractAddress */\n      0x00\n        /* \"contracts/Lottery.sol\":1250:1254  this */\n      address\n        /* \"contracts/Lottery.sol\":1216:1255  address contractAddress = address(this) */\n      swap1\n      pop\n        /* \"contracts/Lottery.sol\":1265:1271  palyer */\n      0x01\n        /* \"contracts/Lottery.sol\":1272:1277  index */\n      dup3\n        /* \"contracts/Lottery.sol\":1265:1278  palyer[index] */\n      dup2\n      sload\n      dup2\n      lt\n      tag_37\n      jumpi\n      tag_38\n      tag_39\n      jump\t// in\n    tag_38:\n    tag_37:\n      swap1\n      0x00\n      mstore\n      keccak256(0x00, 0x20)\n      add\n      0x00\n      swap1\n      sload\n      swap1\n      0x0100\n      exp\n      swap1\n      div\n      0xffffffffffffffffffffffffffffffffffffffff\n      and\n        /* \"contracts/Lottery.sol\":1265:1287  palyer[index].transfer */\n      0xffffffffffffffffffffffffffffffffffffffff\n      and\n        /* \"contracts/Lottery.sol\":1265:1312  palyer[index].transfer(contractAddress.balance) */\n      0x08fc\n        /* \"contracts/Lottery.sol\":1288:1303  contractAddress */\n      dup3\n        /* \"contracts/Lottery.sol\":1288:1311  contractAddress.balance */\n      0xffffffffffffffffffffffffffffffffffffffff\n      and\n      balance\n        /* \"contracts/Lottery.sol\":1265:1312  palyer[index].transfer(contractAddress.balance) */\n      swap1\n      dup2\n      iszero\n      mul\n      swap1\n      mload(0x40)\n      0x00\n      mload(0x40)\n      dup1\n      dup4\n      sub\n      dup2\n      dup6\n      dup9\n      dup9\n      call\n      swap4\n      pop\n      pop\n      pop\n      pop\n      iszero\n      dup1\n      iszero\n      tag_42\n      jumpi\n      returndatasize\n      0x00\n      dup1\n      returndatacopy\n      revert(0x00, returndatasize)\n    tag_42:\n      pop\n        /* \"contracts/Lottery.sol\":1353:1354  0 */\n      0x00\n        /* \"contracts/Lottery.sol\":1331:1355  new address payable[](0) */\n      0xffffffffffffffff\n      dup2\n      gt\n      iszero\n      tag_43\n      jumpi\n      tag_44\n      tag_45\n      jump\t// in\n    tag_44:\n    tag_43:\n      mload(0x40)\n      swap1\n      dup1\n      dup3\n      mstore\n      dup1\n      0x20\n      mul\n      0x20\n      add\n      dup3\n      add\n      0x40\n      mstore\n      dup1\n      iszero\n      tag_46\n      jumpi\n      dup2\n      0x20\n      add\n      0x20\n      dup3\n      mul\n      dup1\n      calldatasize\n      dup4\n      calldatacopy\n      dup1\n      dup3\n      add\n      swap2\n      pop\n      pop\n      swap1\n      pop\n    tag_46:\n      pop\n        /* \"contracts/Lottery.sol\":1322:1328  palyer */\n      0x01\n        /* \"contracts/Lottery.sol\":1322:1355  palyer = new address payable[](0) */\n      swap1\n      dup1\n      mload\n      swap1\n      0x20\n      add\n      swap1\n      tag_47\n      swap3\n      swap2\n      swap1\n      tag_48\n      jump\t// in\n    tag_47:\n      pop\n        /* \"contracts/Lottery.sol\":1062:1362  {... */\n      pop\n      pop\n        /* \"contracts/Lottery.sol\":1024:1362  function PickWinnerInLottery() public {... */\n      jump\t// out\n        /* \"contracts/Lottery.sol\":1368:1466  function getPlayer() public view returns (address payable[] memory) {... */\n    tag_12:\n        /* \"contracts/Lottery.sol\":1410:1434  address payable[] memory */\n      0x60\n        /* \"contracts/Lottery.sol\":1453:1459  palyer */\n      0x01\n        /* \"contracts/Lottery.sol\":1446:1459  return palyer */\n      dup1\n      sload\n      dup1\n      0x20\n      mul\n      0x20\n      add\n      mload(0x40)\n      swap1\n      dup2\n      add\n      0x40\n      mstore\n      dup1\n      swap3\n      swap2\n      swap1\n      dup2\n      dup2\n      mstore\n      0x20\n      add\n      dup3\n      dup1\n      sload\n      dup1\n      iszero\n      tag_50\n      jumpi\n      0x20\n      mul\n      dup3\n      add\n      swap2\n      swap1\n      0x00\n      mstore\n      keccak256(0x00, 0x20)\n      swap1\n    tag_51:\n      dup2\n      0x00\n      swap1\n      sload\n      swap1\n      0x0100\n      exp\n      swap1\n      div\n      0xffffffffffffffffffffffffffffffffffffffff\n      and\n      0xffffffffffffffffffffffffffffffffffffffff\n      and\n      dup2\n      mstore\n      0x20\n      add\n      swap1\n      0x01\n      add\n      swap1\n      dup1\n      dup4\n      gt\n      tag_51\n      jumpi\n    tag_50:\n      pop\n      pop\n      pop\n      pop\n      pop\n      swap1\n      pop\n        /* \"contracts/Lottery.sol\":1368:1466  function getPlayer() public view returns (address payable[] memory) {... */\n      swap1\n      jump\t// out\n        /* \"contracts/Lottery.sol\":451:809  function EnterPlayer() public payable {... */\n    tag_16:\n        /* \"contracts/Lottery.sol\":534:541  Manager */\n      0x00\n      dup1\n      sload\n      swap1\n      0x0100\n      exp\n      swap1\n      div\n      0xffffffffffffffffffffffffffffffffffffffff\n      and\n        /* \"contracts/Lottery.sol\":520:541  msg.sender != Manager */\n      0xffffffffffffffffffffffffffffffffffffffff\n      and\n        /* \"contracts/Lottery.sol\":520:530  msg.sender */\n      caller\n        /* \"contracts/Lottery.sol\":520:541  msg.sender != Manager */\n      0xffffffffffffffffffffffffffffffffffffffff\n      and\n      sub\n        /* \"contracts/Lottery.sol\":499:607  require(... */\n      tag_53\n      jumpi\n      mload(0x40)\n      0x08c379a000000000000000000000000000000000000000000000000000000000\n      dup2\n      mstore\n      0x04\n      add\n      tag_54\n      swap1\n      tag_55\n      jump\t// in\n    tag_54:\n      mload(0x40)\n      dup1\n      swap2\n      sub\n      swap1\n      revert\n    tag_53:\n        /* \"contracts/Lottery.sol\":646:651  false */\n      0x00\n        /* \"contracts/Lottery.sol\":626:651  alreadyEntered() == false */\n      iszero\n      iszero\n        /* \"contracts/Lottery.sol\":626:642  alreadyEntered() */\n      tag_56\n        /* \"contracts/Lottery.sol\":626:640  alreadyEntered */\n      tag_57\n        /* \"contracts/Lottery.sol\":626:642  alreadyEntered() */\n      jump\t// in\n    tag_56:\n        /* \"contracts/Lottery.sol\":626:651  alreadyEntered() == false */\n      iszero\n      iszero\n      eq\n        /* \"contracts/Lottery.sol\":618:678  require(alreadyEntered() == false, \"Player already Entered\") */\n      tag_58\n      jumpi\n      mload(0x40)\n      0x08c379a000000000000000000000000000000000000000000000000000000000\n      dup2\n      mstore\n      0x04\n      add\n      tag_59\n      swap1\n      tag_60\n      jump\t// in\n    tag_59:\n      mload(0x40)\n      dup1\n      swap2\n      sub\n      swap1\n      revert\n    tag_58:\n        /* \"contracts/Lottery.sol\":710:717  1 ether */\n      0x0de0b6b3a7640000\n        /* \"contracts/Lottery.sol\":697:706  msg.value */\n      callvalue\n        /* \"contracts/Lottery.sol\":697:717  msg.value >= 1 ether */\n      lt\n      iszero\n        /* \"contracts/Lottery.sol\":689:759  require(msg.value >= 1 ether, \"Minimum About required to participate\") */\n      tag_61\n      jumpi\n      mload(0x40)\n      0x08c379a000000000000000000000000000000000000000000000000000000000\n      dup2\n      mstore\n      0x04\n      add\n      tag_62\n      swap1\n      tag_63\n      jump\t// in\n    tag_62:\n      mload(0x40)\n      dup1\n      swap2\n      sub\n      swap1\n      revert\n    tag_61:\n        /* \"contracts/Lottery.sol\":770:776  palyer */\n      0x01\n        /* \"contracts/Lottery.sol\":790:800  msg.sender */\n      caller\n        /* \"contracts/Lottery.sol\":770:802  palyer.push(payable(msg.sender)) */\n      swap1\n      dup1\n      0x01\n      dup2\n      sload\n      add\n      dup1\n      dup3\n      sstore\n      dup1\n      swap2\n      pop\n      pop\n      0x01\n      swap1\n      sub\n      swap1\n      0x00\n      mstore\n      keccak256(0x00, 0x20)\n      add\n      0x00\n      swap1\n      swap2\n      swap1\n      swap2\n      swap1\n      swap2\n      0x0100\n      exp\n      dup2\n      sload\n      dup2\n      0xffffffffffffffffffffffffffffffffffffffff\n      mul\n      not\n      and\n      swap1\n      dup4\n      0xffffffffffffffffffffffffffffffffffffffff\n      and\n      mul\n      or\n      swap1\n      sstore\n      pop\n        /* \"contracts/Lottery.sol\":451:809  function EnterPlayer() public payable {... */\n      jump\t// out\n        /* \"contracts/Lottery.sol\":88:110  address public Manager */\n    tag_19:\n      0x00\n      dup1\n      sload\n      swap1\n      0x0100\n      exp\n      swap1\n      div\n      0xffffffffffffffffffffffffffffffffffffffff\n      and\n      dup2\n      jump\t// out\n        /* \"contracts/Lottery.sol\":117:148  address payable[] public palyer */\n    tag_26:\n      0x01\n      dup2\n      dup2\n      sload\n      dup2\n      lt\n      tag_65\n      jumpi\n      0x00\n      dup1\n      revert\n    tag_65:\n      swap1\n      0x00\n      mstore\n      keccak256(0x00, 0x20)\n      add\n      0x00\n      swap2\n      pop\n      sload\n      swap1\n      0x0100\n      exp\n      swap1\n      div\n      0xffffffffffffffffffffffffffffffffffffffff\n      and\n      dup2\n      jump\t// out\n        /* \"contracts/Lottery.sol\":815:1018  function RandomnumberGenerator() private view returns (uint256) {... */\n    tag_34:\n        /* \"contracts/Lottery.sol\":870:877  uint256 */\n      0x00\n        /* \"contracts/Lottery.sol\":933:997  sha256(abi.encodePacked(block.difficulty, block.number, palyer)) */\n      0x02\n        /* \"contracts/Lottery.sol\":957:973  block.difficulty */\n      prevrandao\n        /* \"contracts/Lottery.sol\":975:987  block.number */\n      number\n        /* \"contracts/Lottery.sol\":989:995  palyer */\n      0x01\n        /* \"contracts/Lottery.sol\":940:996  abi.encodePacked(block.difficulty, block.number, palyer) */\n      add(0x20, mload(0x40))\n      tag_68\n      swap4\n      swap3\n      swap2\n      swap1\n      tag_69\n      jump\t// in\n    tag_68:\n      mload(0x40)\n      0x20\n      dup2\n      dup4\n      sub\n      sub\n      dup2\n      mstore\n      swap1\n      0x40\n      mstore\n        /* \"contracts/Lottery.sol\":933:997  sha256(abi.encodePacked(block.difficulty, block.number, palyer)) */\n      mload(0x40)\n      tag_70\n      swap2\n      swap1\n      tag_71\n      jump\t// in\n    tag_70:\n      0x20\n      mload(0x40)\n      dup1\n      dup4\n      sub\n      dup2\n      dup6\n      gas\n      staticcall\n      iszero\n      dup1\n      iszero\n      tag_73\n      jumpi\n      returndatasize\n      0x00\n      dup1\n      returndatacopy\n      revert(0x00, returndatasize)\n    tag_73:\n      pop\n      pop\n      pop\n      mload(0x40)\n      returndatasize\n      not(0x1f)\n      0x1f\n      dup3\n      add\n      and\n      dup3\n      add\n      dup1\n      0x40\n      mstore\n      pop\n      dup2\n      add\n      swap1\n      tag_74\n      swap2\n      swap1\n      tag_75\n      jump\t// in\n    tag_74:\n        /* \"contracts/Lottery.sol\":908:1011  uint256(... */\n      0x00\n      shr\n        /* \"contracts/Lottery.sol\":889:1011  return... */\n      swap1\n      pop\n        /* \"contracts/Lottery.sol\":815:1018  function RandomnumberGenerator() private view returns (uint256) {... */\n      swap1\n      jump\t// out\n        /* \"contracts/Lottery.sol\":212:445  function alreadyEntered() private view returns (bool) {... */\n    tag_57:\n        /* \"contracts/Lottery.sol\":260:264  bool */\n      0x00\n        /* \"contracts/Lottery.sol\":281:290  uint256 i */\n      dup1\n        /* \"contracts/Lottery.sol\":293:294  0 */\n      0x00\n        /* \"contracts/Lottery.sol\":281:294  uint256 i = 0 */\n      swap1\n      pop\n        /* \"contracts/Lottery.sol\":276:417  for (uint256 i = 0; i < palyer.length; i++) {... */\n    tag_77:\n        /* \"contracts/Lottery.sol\":300:306  palyer */\n      0x01\n        /* \"contracts/Lottery.sol\":300:313  palyer.length */\n      dup1\n      sload\n      swap1\n      pop\n        /* \"contracts/Lottery.sol\":296:297  i */\n      dup2\n        /* \"contracts/Lottery.sol\":296:313  i < palyer.length */\n      lt\n        /* \"contracts/Lottery.sol\":276:417  for (uint256 i = 0; i < palyer.length; i++) {... */\n      iszero\n      tag_78\n      jumpi\n        /* \"contracts/Lottery.sol\":352:358  palyer */\n      0x01\n        /* \"contracts/Lottery.sol\":359:360  i */\n      dup2\n        /* \"contracts/Lottery.sol\":352:361  palyer[i] */\n      dup2\n      sload\n      dup2\n      lt\n      tag_80\n      jumpi\n      tag_81\n      tag_39\n      jump\t// in\n    tag_81:\n    tag_80:\n      swap1\n      0x00\n      mstore\n      keccak256(0x00, 0x20)\n      add\n      0x00\n      swap1\n      sload\n      swap1\n      0x0100\n      exp\n      swap1\n      div\n      0xffffffffffffffffffffffffffffffffffffffff\n      and\n        /* \"contracts/Lottery.sol\":338:361  msg.sender == palyer[i] */\n      0xffffffffffffffffffffffffffffffffffffffff\n      and\n        /* \"contracts/Lottery.sol\":338:348  msg.sender */\n      caller\n        /* \"contracts/Lottery.sol\":338:361  msg.sender == palyer[i] */\n      0xffffffffffffffffffffffffffffffffffffffff\n      and\n      sub\n        /* \"contracts/Lottery.sol\":334:407  if (msg.sender == palyer[i]) {... */\n      tag_83\n      jumpi\n        /* \"contracts/Lottery.sol\":388:392  true */\n      0x01\n        /* \"contracts/Lottery.sol\":381:392  return true */\n      swap2\n      pop\n      pop\n      jump(tag_76)\n        /* \"contracts/Lottery.sol\":334:407  if (msg.sender == palyer[i]) {... */\n    tag_83:\n        /* \"contracts/Lottery.sol\":315:318  i++ */\n      dup1\n      dup1\n      0x01\n      add\n      swap2\n      pop\n      pop\n        /* \"contracts/Lottery.sol\":276:417  for (uint256 i = 0; i < palyer.length; i++) {... */\n      jump(tag_77)\n    tag_78:\n      pop\n        /* \"contracts/Lottery.sol\":433:438  false */\n      0x00\n        /* \"contracts/Lottery.sol\":426:438  return false */\n      swap1\n      pop\n        /* \"contracts/Lottery.sol\":212:445  function alreadyEntered() private view returns (bool) {... */\n    tag_76:\n      swap1\n      jump\t// out\n    tag_48:\n      dup3\n      dup1\n      sload\n      dup3\n      dup3\n      sstore\n      swap1\n      0x00\n      mstore\n      keccak256(0x00, 0x20)\n      swap1\n      dup2\n      add\n      swap3\n      dup3\n      iszero\n      tag_84\n      jumpi\n      swap2\n      0x20\n      mul\n      dup3\n      add\n    tag_85:\n      dup3\n      dup2\n      gt\n      iszero\n      tag_86\n      jumpi\n      dup3\n      mload\n      dup3\n      exp(0x0100, 0x00)\n      dup2\n      sload\n      dup2\n      0xffffffffffffffffffffffffffffffffffffffff\n      mul\n      not\n      and\n      swap1\n      dup4\n      0xffffffffffffffffffffffffffffffffffffffff\n      and\n      mul\n      or\n      swap1\n      sstore\n      pop\n      swap2\n      0x20\n      add\n      swap2\n      swap1\n      0x01\n      add\n      swap1\n      jump(tag_85)\n    tag_86:\n    tag_84:\n      pop\n      swap1\n      pop\n      tag_87\n      swap2\n      swap1\n      tag_88\n      jump\t// in\n    tag_87:\n      pop\n      swap1\n      jump\t// out\n    tag_88:\n    tag_89:\n      dup1\n      dup3\n      gt\n      iszero\n      tag_90\n      jumpi\n      0x00\n      dup2\n      0x00\n      swap1\n      sstore\n      pop\n      0x01\n      add\n      jump(tag_89)\n    tag_90:\n      pop\n      swap1\n      jump\t// out\n        /* \"#utility.yul\":7:129   */\n    tag_91:\n        /* \"#utility.yul\":82:88   */\n      0x00\n        /* \"#utility.yul\":116:121   */\n      dup2\n        /* \"#utility.yul\":110:122   */\n      mload\n        /* \"#utility.yul\":100:122   */\n      swap1\n      pop\n        /* \"#utility.yul\":7:129   */\n      swap2\n      swap1\n      pop\n      jump\t// out\n        /* \"#utility.yul\":135:327   */\n    tag_92:\n        /* \"#utility.yul\":242:253   */\n      0x00\n        /* \"#utility.yul\":276:282   */\n      dup3\n        /* \"#utility.yul\":271:274   */\n      dup3\n        /* \"#utility.yul\":264:283   */\n      mstore\n        /* \"#utility.yul\":316:320   */\n      0x20\n        /* \"#utility.yul\":311:314   */\n      dup3\n        /* \"#utility.yul\":307:321   */\n      add\n        /* \"#utility.yul\":292:321   */\n      swap1\n      pop\n        /* \"#utility.yul\":135:327   */\n      swap3\n      swap2\n      pop\n      pop\n      jump\t// out\n        /* \"#utility.yul\":333:473   */\n    tag_93:\n        /* \"#utility.yul\":408:412   */\n      0x00\n        /* \"#utility.yul\":431:434   */\n      dup2\n        /* \"#utility.yul\":423:434   */\n      swap1\n      pop\n        /* \"#utility.yul\":461:465   */\n      0x20\n        /* \"#utility.yul\":456:459   */\n      dup3\n        /* \"#utility.yul\":452:466   */\n      add\n        /* \"#utility.yul\":444:466   */\n      swap1\n      pop\n        /* \"#utility.yul\":333:473   */\n      swap2\n      swap1\n      pop\n      jump\t// out\n        /* \"#utility.yul\":479:605   */\n    tag_94:\n        /* \"#utility.yul\":516:523   */\n      0x00\n        /* \"#utility.yul\":556:598   */\n      0xffffffffffffffffffffffffffffffffffffffff\n        /* \"#utility.yul\":549:554   */\n      dup3\n        /* \"#utility.yul\":545:599   */\n      and\n        /* \"#utility.yul\":534:599   */\n      swap1\n      pop\n        /* \"#utility.yul\":479:605   */\n      swap2\n      swap1\n      pop\n      jump\t// out\n        /* \"#utility.yul\":611:715   */\n    tag_95:\n        /* \"#utility.yul\":656:663   */\n      0x00\n        /* \"#utility.yul\":685:709   */\n      tag_145\n        /* \"#utility.yul\":703:708   */\n      dup3\n        /* \"#utility.yul\":685:709   */\n      tag_94\n      jump\t// in\n    tag_145:\n        /* \"#utility.yul\":674:709   */\n      swap1\n      pop\n        /* \"#utility.yul\":611:715   */\n      swap2\n      swap1\n      pop\n      jump\t// out\n        /* \"#utility.yul\":721:853   */\n    tag_96:\n        /* \"#utility.yul\":814:846   */\n      tag_147\n        /* \"#utility.yul\":840:845   */\n      dup2\n        /* \"#utility.yul\":814:846   */\n      tag_95\n      jump\t// in\n    tag_147:\n        /* \"#utility.yul\":809:812   */\n      dup3\n        /* \"#utility.yul\":802:847   */\n      mstore\n        /* \"#utility.yul\":721:853   */\n      pop\n      pop\n      jump\t// out\n        /* \"#utility.yul\":859:1070   */\n    tag_97:\n        /* \"#utility.yul\":944:954   */\n      0x00\n        /* \"#utility.yul\":965:1027   */\n      tag_149\n        /* \"#utility.yul\":1023:1026   */\n      dup4\n        /* \"#utility.yul\":1015:1021   */\n      dup4\n        /* \"#utility.yul\":965:1027   */\n      tag_96\n      jump\t// in\n    tag_149:\n        /* \"#utility.yul\":1059:1063   */\n      0x20\n        /* \"#utility.yul\":1054:1057   */\n      dup4\n        /* \"#utility.yul\":1050:1064   */\n      add\n        /* \"#utility.yul\":1036:1064   */\n      swap1\n      pop\n        /* \"#utility.yul\":859:1070   */\n      swap3\n      swap2\n      pop\n      pop\n      jump\t// out\n        /* \"#utility.yul\":1076:1197   */\n    tag_98:\n        /* \"#utility.yul\":1154:1158   */\n      0x00\n        /* \"#utility.yul\":1186:1190   */\n      0x20\n        /* \"#utility.yul\":1181:1184   */\n      dup3\n        /* \"#utility.yul\":1177:1191   */\n      add\n        /* \"#utility.yul\":1169:1191   */\n      swap1\n      pop\n        /* \"#utility.yul\":1076:1197   */\n      swap2\n      swap1\n      pop\n      jump\t// out\n        /* \"#utility.yul\":1249:2045   */\n    tag_99:\n        /* \"#utility.yul\":1384:1387   */\n      0x00\n        /* \"#utility.yul\":1413:1475   */\n      tag_152\n        /* \"#utility.yul\":1469:1474   */\n      dup3\n        /* \"#utility.yul\":1413:1475   */\n      tag_91\n      jump\t// in\n    tag_152:\n        /* \"#utility.yul\":1491:1585   */\n      tag_153\n        /* \"#utility.yul\":1578:1584   */\n      dup2\n        /* \"#utility.yul\":1573:1576   */\n      dup6\n        /* \"#utility.yul\":1491:1585   */\n      tag_92\n      jump\t// in\n    tag_153:\n        /* \"#utility.yul\":1484:1585   */\n      swap4\n      pop\n        /* \"#utility.yul\":1609:1673   */\n      tag_154\n        /* \"#utility.yul\":1667:1672   */\n      dup4\n        /* \"#utility.yul\":1609:1673   */\n      tag_93\n      jump\t// in\n    tag_154:\n        /* \"#utility.yul\":1696:1703   */\n      dup1\n        /* \"#utility.yul\":1727:1728   */\n      0x00\n        /* \"#utility.yul\":1712:2020   */\n    tag_155:\n        /* \"#utility.yul\":1737:1743   */\n      dup4\n        /* \"#utility.yul\":1734:1735   */\n      dup2\n        /* \"#utility.yul\":1731:1744   */\n      lt\n        /* \"#utility.yul\":1712:2020   */\n      iszero\n      tag_157\n      jumpi\n        /* \"#utility.yul\":1813:1819   */\n      dup2\n        /* \"#utility.yul\":1807:1820   */\n      mload\n        /* \"#utility.yul\":1840:1919   */\n      tag_158\n        /* \"#utility.yul\":1915:1918   */\n      dup9\n        /* \"#utility.yul\":1900:1913   */\n      dup3\n        /* \"#utility.yul\":1840:1919   */\n      tag_97\n      jump\t// in\n    tag_158:\n        /* \"#utility.yul\":1833:1919   */\n      swap8\n      pop\n        /* \"#utility.yul\":1942:2010   */\n      tag_159\n        /* \"#utility.yul\":2003:2009   */\n      dup4\n        /* \"#utility.yul\":1942:2010   */\n      tag_98\n      jump\t// in\n    tag_159:\n        /* \"#utility.yul\":1932:2010   */\n      swap3\n      pop\n        /* \"#utility.yul\":1772:2020   */\n      pop\n        /* \"#utility.yul\":1759:1760   */\n      0x01\n        /* \"#utility.yul\":1756:1757   */\n      dup2\n        /* \"#utility.yul\":1752:1761   */\n      add\n        /* \"#utility.yul\":1747:1761   */\n      swap1\n      pop\n        /* \"#utility.yul\":1712:2020   */\n      jump(tag_155)\n    tag_157:\n        /* \"#utility.yul\":1716:1730   */\n      pop\n        /* \"#utility.yul\":2036:2039   */\n      dup6\n        /* \"#utility.yul\":2029:2039   */\n      swap4\n      pop\n        /* \"#utility.yul\":1389:2045   */\n      pop\n      pop\n      pop\n        /* \"#utility.yul\":1249:2045   */\n      swap3\n      swap2\n      pop\n      pop\n      jump\t// out\n        /* \"#utility.yul\":2051:2456   */\n    tag_14:\n        /* \"#utility.yul\":2210:2214   */\n      0x00\n        /* \"#utility.yul\":2248:2250   */\n      0x20\n        /* \"#utility.yul\":2237:2246   */\n      dup3\n        /* \"#utility.yul\":2233:2251   */\n      add\n        /* \"#utility.yul\":2225:2251   */\n      swap1\n      pop\n        /* \"#utility.yul\":2297:2306   */\n      dup2\n        /* \"#utility.yul\":2291:2295   */\n      dup2\n        /* \"#utility.yul\":2287:2307   */\n      sub\n        /* \"#utility.yul\":2283:2284   */\n      0x00\n        /* \"#utility.yul\":2272:2281   */\n      dup4\n        /* \"#utility.yul\":2268:2285   */\n      add\n        /* \"#utility.yul\":2261:2308   */\n      mstore\n        /* \"#utility.yul\":2325:2449   */\n      tag_161\n        /* \"#utility.yul\":2444:2448   */\n      dup2\n        /* \"#utility.yul\":2435:2441   */\n      dup5\n        /* \"#utility.yul\":2325:2449   */\n      tag_99\n      jump\t// in\n    tag_161:\n        /* \"#utility.yul\":2317:2449   */\n      swap1\n      pop\n        /* \"#utility.yul\":2051:2456   */\n      swap3\n      swap2\n      pop\n      pop\n      jump\t// out\n        /* \"#utility.yul\":2462:2558   */\n    tag_100:\n        /* \"#utility.yul\":2499:2506   */\n      0x00\n        /* \"#utility.yul\":2528:2552   */\n      tag_163\n        /* \"#utility.yul\":2546:2551   */\n      dup3\n        /* \"#utility.yul\":2528:2552   */\n      tag_94\n      jump\t// in\n    tag_163:\n        /* \"#utility.yul\":2517:2552   */\n      swap1\n      pop\n        /* \"#utility.yul\":2462:2558   */\n      swap2\n      swap1\n      pop\n      jump\t// out\n        /* \"#utility.yul\":2564:2682   */\n    tag_101:\n        /* \"#utility.yul\":2651:2675   */\n      tag_165\n        /* \"#utility.yul\":2669:2674   */\n      dup2\n        /* \"#utility.yul\":2651:2675   */\n      tag_100\n      jump\t// in\n    tag_165:\n        /* \"#utility.yul\":2646:2649   */\n      dup3\n        /* \"#utility.yul\":2639:2676   */\n      mstore\n        /* \"#utility.yul\":2564:2682   */\n      pop\n      pop\n      jump\t// out\n        /* \"#utility.yul\":2688:2910   */\n    tag_21:\n        /* \"#utility.yul\":2781:2785   */\n      0x00\n        /* \"#utility.yul\":2819:2821   */\n      0x20\n        /* \"#utility.yul\":2808:2817   */\n      dup3\n        /* \"#utility.yul\":2804:2822   */\n      add\n        /* \"#utility.yul\":2796:2822   */\n      swap1\n      pop\n        /* \"#utility.yul\":2832:2903   */\n      tag_167\n        /* \"#utility.yul\":2900:2901   */\n      0x00\n        /* \"#utility.yul\":2889:2898   */\n      dup4\n        /* \"#utility.yul\":2885:2902   */\n      add\n        /* \"#utility.yul\":2876:2882   */\n      dup5\n        /* \"#utility.yul\":2832:2903   */\n      tag_101\n      jump\t// in\n    tag_167:\n        /* \"#utility.yul\":2688:2910   */\n      swap3\n      swap2\n      pop\n      pop\n      jump\t// out\n        /* \"#utility.yul\":2997:3114   */\n    tag_103:\n        /* \"#utility.yul\":3106:3107   */\n      0x00\n        /* \"#utility.yul\":3103:3104   */\n      dup1\n        /* \"#utility.yul\":3096:3108   */\n      revert\n        /* \"#utility.yul\":3243:3320   */\n    tag_105:\n        /* \"#utility.yul\":3280:3287   */\n      0x00\n        /* \"#utility.yul\":3309:3314   */\n      dup2\n        /* \"#utility.yul\":3298:3314   */\n      swap1\n      pop\n        /* \"#utility.yul\":3243:3320   */\n      swap2\n      swap1\n      pop\n      jump\t// out\n        /* \"#utility.yul\":3326:3448   */\n    tag_106:\n        /* \"#utility.yul\":3399:3423   */\n      tag_173\n        /* \"#utility.yul\":3417:3422   */\n      dup2\n        /* \"#utility.yul\":3399:3423   */\n      tag_105\n      jump\t// in\n    tag_173:\n        /* \"#utility.yul\":3392:3397   */\n      dup2\n        /* \"#utility.yul\":3389:3424   */\n      eq\n        /* \"#utility.yul\":3379:3442   */\n      tag_174\n      jumpi\n        /* \"#utility.yul\":3438:3439   */\n      0x00\n        /* \"#utility.yul\":3435:3436   */\n      dup1\n        /* \"#utility.yul\":3428:3440   */\n      revert\n        /* \"#utility.yul\":3379:3442   */\n    tag_174:\n        /* \"#utility.yul\":3326:3448   */\n      pop\n      jump\t// out\n        /* \"#utility.yul\":3454:3593   */\n    tag_107:\n        /* \"#utility.yul\":3500:3505   */\n      0x00\n        /* \"#utility.yul\":3538:3544   */\n      dup2\n        /* \"#utility.yul\":3525:3545   */\n      calldataload\n        /* \"#utility.yul\":3516:3545   */\n      swap1\n      pop\n        /* \"#utility.yul\":3554:3587   */\n      tag_176\n        /* \"#utility.yul\":3581:3586   */\n      dup2\n        /* \"#utility.yul\":3554:3587   */\n      tag_106\n      jump\t// in\n    tag_176:\n        /* \"#utility.yul\":3454:3593   */\n      swap3\n      swap2\n      pop\n      pop\n      jump\t// out\n        /* \"#utility.yul\":3599:3928   */\n    tag_25:\n        /* \"#utility.yul\":3658:3664   */\n      0x00\n        /* \"#utility.yul\":3707:3709   */\n      0x20\n        /* \"#utility.yul\":3695:3704   */\n      dup3\n        /* \"#utility.yul\":3686:3693   */\n      dup5\n        /* \"#utility.yul\":3682:3705   */\n      sub\n        /* \"#utility.yul\":3678:3710   */\n      slt\n        /* \"#utility.yul\":3675:3794   */\n      iszero\n      tag_178\n      jumpi\n        /* \"#utility.yul\":3713:3792   */\n      tag_179\n      tag_103\n      jump\t// in\n    tag_179:\n        /* \"#utility.yul\":3675:3794   */\n    tag_178:\n        /* \"#utility.yul\":3833:3834   */\n      0x00\n        /* \"#utility.yul\":3858:3911   */\n      tag_180\n        /* \"#utility.yul\":3903:3910   */\n      dup5\n        /* \"#utility.yul\":3894:3900   */\n      dup3\n        /* \"#utility.yul\":3883:3892   */\n      dup6\n        /* \"#utility.yul\":3879:3901   */\n      add\n        /* \"#utility.yul\":3858:3911   */\n      tag_107\n      jump\t// in\n    tag_180:\n        /* \"#utility.yul\":3848:3911   */\n      swap2\n      pop\n        /* \"#utility.yul\":3804:3921   */\n      pop\n        /* \"#utility.yul\":3599:3928   */\n      swap3\n      swap2\n      pop\n      pop\n      jump\t// out\n        /* \"#utility.yul\":3934:4076   */\n    tag_108:\n        /* \"#utility.yul\":4037:4069   */\n      tag_182\n        /* \"#utility.yul\":4063:4068   */\n      dup2\n        /* \"#utility.yul\":4037:4069   */\n      tag_95\n      jump\t// in\n    tag_182:\n        /* \"#utility.yul\":4032:4035   */\n      dup3\n        /* \"#utility.yul\":4025:4070   */\n      mstore\n        /* \"#utility.yul\":3934:4076   */\n      pop\n      pop\n      jump\t// out\n        /* \"#utility.yul\":4082:4336   */\n    tag_28:\n        /* \"#utility.yul\":4191:4195   */\n      0x00\n        /* \"#utility.yul\":4229:4231   */\n      0x20\n        /* \"#utility.yul\":4218:4227   */\n      dup3\n        /* \"#utility.yul\":4214:4232   */\n      add\n        /* \"#utility.yul\":4206:4232   */\n      swap1\n      pop\n        /* \"#utility.yul\":4242:4329   */\n      tag_184\n        /* \"#utility.yul\":4326:4327   */\n      0x00\n        /* \"#utility.yul\":4315:4324   */\n      dup4\n        /* \"#utility.yul\":4311:4328   */\n      add\n        /* \"#utility.yul\":4302:4308   */\n      dup5\n        /* \"#utility.yul\":4242:4329   */\n      tag_108\n      jump\t// in\n    tag_184:\n        /* \"#utility.yul\":4082:4336   */\n      swap3\n      swap2\n      pop\n      pop\n      jump\t// out\n        /* \"#utility.yul\":4342:4511   */\n    tag_109:\n        /* \"#utility.yul\":4426:4437   */\n      0x00\n        /* \"#utility.yul\":4460:4466   */\n      dup3\n        /* \"#utility.yul\":4455:4458   */\n      dup3\n        /* \"#utility.yul\":4448:4467   */\n      mstore\n        /* \"#utility.yul\":4500:4504   */\n      0x20\n        /* \"#utility.yul\":4495:4498   */\n      dup3\n        /* \"#utility.yul\":4491:4505   */\n      add\n        /* \"#utility.yul\":4476:4505   */\n      swap1\n      pop\n        /* \"#utility.yul\":4342:4511   */\n      swap3\n      swap2\n      pop\n      pop\n      jump\t// out\n        /* \"#utility.yul\":4517:4739   */\n    tag_110:\n        /* \"#utility.yul\":4657:4691   */\n      0x4f6e6c79206d616e616e6765722063616e207069636b7570207468652077696e\n        /* \"#utility.yul\":4653:4654   */\n      0x00\n        /* \"#utility.yul\":4645:4651   */\n      dup3\n        /* \"#utility.yul\":4641:4655   */\n      add\n        /* \"#utility.yul\":4634:4692   */\n      mstore\n        /* \"#utility.yul\":4726:4731   */\n      0x6e65720000000000000000000000000000000000000000000000000000000000\n        /* \"#utility.yul\":4721:4723   */\n      0x20\n        /* \"#utility.yul\":4713:4719   */\n      dup3\n        /* \"#utility.yul\":4709:4724   */\n      add\n        /* \"#utility.yul\":4702:4732   */\n      mstore\n        /* \"#utility.yul\":4517:4739   */\n      pop\n      jump\t// out\n        /* \"#utility.yul\":4745:5111   */\n    tag_111:\n        /* \"#utility.yul\":4887:4890   */\n      0x00\n        /* \"#utility.yul\":4908:4975   */\n      tag_188\n        /* \"#utility.yul\":4972:4974   */\n      0x23\n        /* \"#utility.yul\":4967:4970   */\n      dup4\n        /* \"#utility.yul\":4908:4975   */\n      tag_109\n      jump\t// in\n    tag_188:\n        /* \"#utility.yul\":4901:4975   */\n      swap2\n      pop\n        /* \"#utility.yul\":4984:5077   */\n      tag_189\n        /* \"#utility.yul\":5073:5076   */\n      dup3\n        /* \"#utility.yul\":4984:5077   */\n      tag_110\n      jump\t// in\n    tag_189:\n        /* \"#utility.yul\":5102:5104   */\n      0x40\n        /* \"#utility.yul\":5097:5100   */\n      dup3\n        /* \"#utility.yul\":5093:5105   */\n      add\n        /* \"#utility.yul\":5086:5105   */\n      swap1\n      pop\n        /* \"#utility.yul\":4745:5111   */\n      swap2\n      swap1\n      pop\n      jump\t// out\n        /* \"#utility.yul\":5117:5536   */\n    tag_32:\n        /* \"#utility.yul\":5283:5287   */\n      0x00\n        /* \"#utility.yul\":5321:5323   */\n      0x20\n        /* \"#utility.yul\":5310:5319   */\n      dup3\n        /* \"#utility.yul\":5306:5324   */\n      add\n        /* \"#utility.yul\":5298:5324   */\n      swap1\n      pop\n        /* \"#utility.yul\":5370:5379   */\n      dup2\n        /* \"#utility.yul\":5364:5368   */\n      dup2\n        /* \"#utility.yul\":5360:5380   */\n      sub\n        /* \"#utility.yul\":5356:5357   */\n      0x00\n        /* \"#utility.yul\":5345:5354   */\n      dup4\n        /* \"#utility.yul\":5341:5358   */\n      add\n        /* \"#utility.yul\":5334:5381   */\n      mstore\n        /* \"#utility.yul\":5398:5529   */\n      tag_191\n        /* \"#utility.yul\":5524:5528   */\n      dup2\n        /* \"#utility.yul\":5398:5529   */\n      tag_111\n      jump\t// in\n    tag_191:\n        /* \"#utility.yul\":5390:5529   */\n      swap1\n      pop\n        /* \"#utility.yul\":5117:5536   */\n      swap2\n      swap1\n      pop\n      jump\t// out\n        /* \"#utility.yul\":5542:5722   */\n    tag_112:\n        /* \"#utility.yul\":5590:5667   */\n      0x4e487b7100000000000000000000000000000000000000000000000000000000\n        /* \"#utility.yul\":5587:5588   */\n      0x00\n        /* \"#utility.yul\":5580:5668   */\n      mstore\n        /* \"#utility.yul\":5687:5691   */\n      0x12\n        /* \"#utility.yul\":5684:5685   */\n      0x04\n        /* \"#utility.yul\":5677:5692   */\n      mstore\n        /* \"#utility.yul\":5711:5715   */\n      0x24\n        /* \"#utility.yul\":5708:5709   */\n      0x00\n        /* \"#utility.yul\":5701:5716   */\n      revert\n        /* \"#utility.yul\":5728:5904   */\n    tag_36:\n        /* \"#utility.yul\":5760:5761   */\n      0x00\n        /* \"#utility.yul\":5777:5797   */\n      tag_194\n        /* \"#utility.yul\":5795:5796   */\n      dup3\n        /* \"#utility.yul\":5777:5797   */\n      tag_105\n      jump\t// in\n    tag_194:\n        /* \"#utility.yul\":5772:5797   */\n      swap2\n      pop\n        /* \"#utility.yul\":5811:5831   */\n      tag_195\n        /* \"#utility.yul\":5829:5830   */\n      dup4\n        /* \"#utility.yul\":5811:5831   */\n      tag_105\n      jump\t// in\n    tag_195:\n        /* \"#utility.yul\":5806:5831   */\n      swap3\n      pop\n        /* \"#utility.yul\":5850:5851   */\n      dup3\n        /* \"#utility.yul\":5840:5875   */\n      tag_196\n      jumpi\n        /* \"#utility.yul\":5855:5873   */\n      tag_197\n      tag_112\n      jump\t// in\n    tag_197:\n        /* \"#utility.yul\":5840:5875   */\n    tag_196:\n        /* \"#utility.yul\":5896:5897   */\n      dup3\n        /* \"#utility.yul\":5893:5894   */\n      dup3\n        /* \"#utility.yul\":5889:5898   */\n      mod\n        /* \"#utility.yul\":5884:5898   */\n      swap1\n      pop\n        /* \"#utility.yul\":5728:5904   */\n      swap3\n      swap2\n      pop\n      pop\n      jump\t// out\n        /* \"#utility.yul\":5910:6090   */\n    tag_39:\n        /* \"#utility.yul\":5958:6035   */\n      0x4e487b7100000000000000000000000000000000000000000000000000000000\n        /* \"#utility.yul\":5955:5956   */\n      0x00\n        /* \"#utility.yul\":5948:6036   */\n      mstore\n        /* \"#utility.yul\":6055:6059   */\n      0x32\n        /* \"#utility.yul\":6052:6053   */\n      0x04\n        /* \"#utility.yul\":6045:6060   */\n      mstore\n        /* \"#utility.yul\":6079:6083   */\n      0x24\n        /* \"#utility.yul\":6076:6077   */\n      0x00\n        /* \"#utility.yul\":6069:6084   */\n      revert\n        /* \"#utility.yul\":6096:6276   */\n    tag_45:\n        /* \"#utility.yul\":6144:6221   */\n      0x4e487b7100000000000000000000000000000000000000000000000000000000\n        /* \"#utility.yul\":6141:6142   */\n      0x00\n        /* \"#utility.yul\":6134:6222   */\n      mstore\n        /* \"#utility.yul\":6241:6245   */\n      0x41\n        /* \"#utility.yul\":6238:6239   */\n      0x04\n        /* \"#utility.yul\":6231:6246   */\n      mstore\n        /* \"#utility.yul\":6265:6269   */\n      0x24\n        /* \"#utility.yul\":6262:6263   */\n      0x00\n        /* \"#utility.yul\":6255:6270   */\n      revert\n        /* \"#utility.yul\":6282:6509   */\n    tag_113:\n        /* \"#utility.yul\":6422:6456   */\n      0x4d616e61676572206973206e6f7420417574686f726f7a656420746f20506172\n        /* \"#utility.yul\":6418:6419   */\n      0x00\n        /* \"#utility.yul\":6410:6416   */\n      dup3\n        /* \"#utility.yul\":6406:6420   */\n      add\n        /* \"#utility.yul\":6399:6457   */\n      mstore\n        /* \"#utility.yul\":6491:6501   */\n      0x7469636970617465000000000000000000000000000000000000000000000000\n        /* \"#utility.yul\":6486:6488   */\n      0x20\n        /* \"#utility.yul\":6478:6484   */\n      dup3\n        /* \"#utility.yul\":6474:6489   */\n      add\n        /* \"#utility.yul\":6467:6502   */\n      mstore\n        /* \"#utility.yul\":6282:6509   */\n      pop\n      jump\t// out\n        /* \"#utility.yul\":6515:6881   */\n    tag_114:\n        /* \"#utility.yul\":6657:6660   */\n      0x00\n        /* \"#utility.yul\":6678:6745   */\n      tag_202\n        /* \"#utility.yul\":6742:6744   */\n      0x28\n        /* \"#utility.yul\":6737:6740   */\n      dup4\n        /* \"#utility.yul\":6678:6745   */\n      tag_109\n      jump\t// in\n    tag_202:\n        /* \"#utility.yul\":6671:6745   */\n      swap2\n      pop\n        /* \"#utility.yul\":6754:6847   */\n      tag_203\n        /* \"#utility.yul\":6843:6846   */\n      dup3\n        /* \"#utility.yul\":6754:6847   */\n      tag_113\n      jump\t// in\n    tag_203:\n        /* \"#utility.yul\":6872:6874   */\n      0x40\n        /* \"#utility.yul\":6867:6870   */\n      dup3\n        /* \"#utility.yul\":6863:6875   */\n      add\n        /* \"#utility.yul\":6856:6875   */\n      swap1\n      pop\n        /* \"#utility.yul\":6515:6881   */\n      swap2\n      swap1\n      pop\n      jump\t// out\n        /* \"#utility.yul\":6887:7306   */\n    tag_55:\n        /* \"#utility.yul\":7053:7057   */\n      0x00\n        /* \"#utility.yul\":7091:7093   */\n      0x20\n        /* \"#utility.yul\":7080:7089   */\n      dup3\n        /* \"#utility.yul\":7076:7094   */\n      add\n        /* \"#utility.yul\":7068:7094   */\n      swap1\n      pop\n        /* \"#utility.yul\":7140:7149   */\n      dup2\n        /* \"#utility.yul\":7134:7138   */\n      dup2\n        /* \"#utility.yul\":7130:7150   */\n      sub\n        /* \"#utility.yul\":7126:7127   */\n      0x00\n        /* \"#utility.yul\":7115:7124   */\n      dup4\n        /* \"#utility.yul\":7111:7128   */\n      add\n        /* \"#utility.yul\":7104:7151   */\n      mstore\n        /* \"#utility.yul\":7168:7299   */\n      tag_205\n        /* \"#utility.yul\":7294:7298   */\n      dup2\n        /* \"#utility.yul\":7168:7299   */\n      tag_114\n      jump\t// in\n    tag_205:\n        /* \"#utility.yul\":7160:7299   */\n      swap1\n      pop\n        /* \"#utility.yul\":6887:7306   */\n      swap2\n      swap1\n      pop\n      jump\t// out\n        /* \"#utility.yul\":7312:7484   */\n    tag_115:\n        /* \"#utility.yul\":7452:7476   */\n      0x506c6179657220616c726561647920456e746572656400000000000000000000\n        /* \"#utility.yul\":7448:7449   */\n      0x00\n        /* \"#utility.yul\":7440:7446   */\n      dup3\n        /* \"#utility.yul\":7436:7450   */\n      add\n        /* \"#utility.yul\":7429:7477   */\n      mstore\n        /* \"#utility.yul\":7312:7484   */\n      pop\n      jump\t// out\n        /* \"#utility.yul\":7490:7856   */\n    tag_116:\n        /* \"#utility.yul\":7632:7635   */\n      0x00\n        /* \"#utility.yul\":7653:7720   */\n      tag_208\n        /* \"#utility.yul\":7717:7719   */\n      0x16\n        /* \"#utility.yul\":7712:7715   */\n      dup4\n        /* \"#utility.yul\":7653:7720   */\n      tag_109\n      jump\t// in\n    tag_208:\n        /* \"#utility.yul\":7646:7720   */\n      swap2\n      pop\n        /* \"#utility.yul\":7729:7822   */\n      tag_209\n        /* \"#utility.yul\":7818:7821   */\n      dup3\n        /* \"#utility.yul\":7729:7822   */\n      tag_115\n      jump\t// in\n    tag_209:\n        /* \"#utility.yul\":7847:7849   */\n      0x20\n        /* \"#utility.yul\":7842:7845   */\n      dup3\n        /* \"#utility.yul\":7838:7850   */\n      add\n        /* \"#utility.yul\":7831:7850   */\n      swap1\n      pop\n        /* \"#utility.yul\":7490:7856   */\n      swap2\n      swap1\n      pop\n      jump\t// out\n        /* \"#utility.yul\":7862:8281   */\n    tag_60:\n        /* \"#utility.yul\":8028:8032   */\n      0x00\n        /* \"#utility.yul\":8066:8068   */\n      0x20\n        /* \"#utility.yul\":8055:8064   */\n      dup3\n        /* \"#utility.yul\":8051:8069   */\n      add\n        /* \"#utility.yul\":8043:8069   */\n      swap1\n      pop\n        /* \"#utility.yul\":8115:8124   */\n      dup2\n        /* \"#utility.yul\":8109:8113   */\n      dup2\n        /* \"#utility.yul\":8105:8125   */\n      sub\n        /* \"#utility.yul\":8101:8102   */\n      0x00\n        /* \"#utility.yul\":8090:8099   */\n      dup4\n        /* \"#utility.yul\":8086:8103   */\n      add\n        /* \"#utility.yul\":8079:8126   */\n      mstore\n        /* \"#utility.yul\":8143:8274   */\n      tag_211\n        /* \"#utility.yul\":8269:8273   */\n      dup2\n        /* \"#utility.yul\":8143:8274   */\n      tag_116\n      jump\t// in\n    tag_211:\n        /* \"#utility.yul\":8135:8274   */\n      swap1\n      pop\n        /* \"#utility.yul\":7862:8281   */\n      swap2\n      swap1\n      pop\n      jump\t// out\n        /* \"#utility.yul\":8287:8511   */\n    tag_117:\n        /* \"#utility.yul\":8427:8461   */\n      0x4d696e696d756d2041626f757420726571756972656420746f20706172746963\n        /* \"#utility.yul\":8423:8424   */\n      0x00\n        /* \"#utility.yul\":8415:8421   */\n      dup3\n        /* \"#utility.yul\":8411:8425   */\n      add\n        /* \"#utility.yul\":8404:8462   */\n      mstore\n        /* \"#utility.yul\":8496:8503   */\n      0x6970617465000000000000000000000000000000000000000000000000000000\n        /* \"#utility.yul\":8491:8493   */\n      0x20\n        /* \"#utility.yul\":8483:8489   */\n      dup3\n        /* \"#utility.yul\":8479:8494   */\n      add\n        /* \"#utility.yul\":8472:8504   */\n      mstore\n        /* \"#utility.yul\":8287:8511   */\n      pop\n      jump\t// out\n        /* \"#utility.yul\":8517:8883   */\n    tag_118:\n        /* \"#utility.yul\":8659:8662   */\n      0x00\n        /* \"#utility.yul\":8680:8747   */\n      tag_214\n        /* \"#utility.yul\":8744:8746   */\n      0x25\n        /* \"#utility.yul\":8739:8742   */\n      dup4\n        /* \"#utility.yul\":8680:8747   */\n      tag_109\n      jump\t// in\n    tag_214:\n        /* \"#utility.yul\":8673:8747   */\n      swap2\n      pop\n        /* \"#utility.yul\":8756:8849   */\n      tag_215\n        /* \"#utility.yul\":8845:8848   */\n      dup3\n        /* \"#utility.yul\":8756:8849   */\n      tag_117\n      jump\t// in\n    tag_215:\n        /* \"#utility.yul\":8874:8876   */\n      0x40\n        /* \"#utility.yul\":8869:8872   */\n      dup3\n        /* \"#utility.yul\":8865:8877   */\n      add\n        /* \"#utility.yul\":8858:8877   */\n      swap1\n      pop\n        /* \"#utility.yul\":8517:8883   */\n      swap2\n      swap1\n      pop\n      jump\t// out\n        /* \"#utility.yul\":8889:9308   */\n    tag_63:\n        /* \"#utility.yul\":9055:9059   */\n      0x00\n        /* \"#utility.yul\":9093:9095   */\n      0x20\n        /* \"#utility.yul\":9082:9091   */\n      dup3\n        /* \"#utility.yul\":9078:9096   */\n      add\n        /* \"#utility.yul\":9070:9096   */\n      swap1\n      pop\n        /* \"#utility.yul\":9142:9151   */\n      dup2\n        /* \"#utility.yul\":9136:9140   */\n      dup2\n        /* \"#utility.yul\":9132:9152   */\n      sub\n        /* \"#utility.yul\":9128:9129   */\n      0x00\n        /* \"#utility.yul\":9117:9126   */\n      dup4\n        /* \"#utility.yul\":9113:9130   */\n      add\n        /* \"#utility.yul\":9106:9153   */\n      mstore\n        /* \"#utility.yul\":9170:9301   */\n      tag_217\n        /* \"#utility.yul\":9296:9300   */\n      dup2\n        /* \"#utility.yul\":9170:9301   */\n      tag_118\n      jump\t// in\n    tag_217:\n        /* \"#utility.yul\":9162:9301   */\n      swap1\n      pop\n        /* \"#utility.yul\":8889:9308   */\n      swap2\n      swap1\n      pop\n      jump\t// out\n        /* \"#utility.yul\":9314:9393   */\n    tag_119:\n        /* \"#utility.yul\":9353:9360   */\n      0x00\n        /* \"#utility.yul\":9382:9387   */\n      dup2\n        /* \"#utility.yul\":9371:9387   */\n      swap1\n      pop\n        /* \"#utility.yul\":9314:9393   */\n      swap2\n      swap1\n      pop\n      jump\t// out\n        /* \"#utility.yul\":9399:9556   */\n    tag_120:\n        /* \"#utility.yul\":9504:9549   */\n      tag_220\n        /* \"#utility.yul\":9524:9548   */\n      tag_221\n        /* \"#utility.yul\":9542:9547   */\n      dup3\n        /* \"#utility.yul\":9524:9548   */\n      tag_105\n      jump\t// in\n    tag_221:\n        /* \"#utility.yul\":9504:9549   */\n      tag_119\n      jump\t// in\n    tag_220:\n        /* \"#utility.yul\":9499:9502   */\n      dup3\n        /* \"#utility.yul\":9492:9550   */\n      mstore\n        /* \"#utility.yul\":9399:9556   */\n      pop\n      pop\n      jump\t// out\n        /* \"#utility.yul\":9562:9681   */\n    tag_121:\n        /* \"#utility.yul\":9634:9640   */\n      0x00\n        /* \"#utility.yul\":9668:9673   */\n      dup2\n        /* \"#utility.yul\":9662:9674   */\n      sload\n        /* \"#utility.yul\":9652:9674   */\n      swap1\n      pop\n        /* \"#utility.yul\":9562:9681   */\n      swap2\n      swap1\n      pop\n      jump\t// out\n        /* \"#utility.yul\":9687:9858   */\n    tag_122:\n        /* \"#utility.yul\":9812:9823   */\n      0x00\n        /* \"#utility.yul\":9849:9852   */\n      dup2\n        /* \"#utility.yul\":9834:9852   */\n      swap1\n      pop\n        /* \"#utility.yul\":9687:9858   */\n      swap3\n      swap2\n      pop\n      pop\n      jump\t// out\n        /* \"#utility.yul\":9864:10028   */\n    tag_123:\n        /* \"#utility.yul\":9936:9940   */\n      0x00\n        /* \"#utility.yul\":9959:9962   */\n      dup2\n        /* \"#utility.yul\":9951:9962   */\n      swap1\n      pop\n        /* \"#utility.yul\":9982:9985   */\n      dup2\n        /* \"#utility.yul\":9979:9980   */\n      0x00\n        /* \"#utility.yul\":9972:9986   */\n      mstore\n        /* \"#utility.yul\":10016:10020   */\n      0x20\n        /* \"#utility.yul\":10013:10014   */\n      0x00\n        /* \"#utility.yul\":10003:10021   */\n      keccak256\n        /* \"#utility.yul\":9995:10021   */\n      swap1\n      pop\n        /* \"#utility.yul\":9864:10028   */\n      swap2\n      swap1\n      pop\n      jump\t// out\n        /* \"#utility.yul\":10034:10174   */\n    tag_124:\n        /* \"#utility.yul\":10135:10167   */\n      tag_226\n        /* \"#utility.yul\":10161:10166   */\n      dup2\n        /* \"#utility.yul\":10135:10167   */\n      tag_95\n      jump\t// in\n    tag_226:\n        /* \"#utility.yul\":10130:10133   */\n      dup3\n        /* \"#utility.yul\":10123:10168   */\n      mstore\n        /* \"#utility.yul\":10034:10174   */\n      pop\n      pop\n      jump\t// out\n        /* \"#utility.yul\":10180:10407   */\n    tag_125:\n        /* \"#utility.yul\":10273:10283   */\n      0x00\n        /* \"#utility.yul\":10294:10364   */\n      tag_228\n        /* \"#utility.yul\":10360:10363   */\n      dup4\n        /* \"#utility.yul\":10352:10358   */\n      dup4\n        /* \"#utility.yul\":10294:10364   */\n      tag_124\n      jump\t// in\n    tag_228:\n        /* \"#utility.yul\":10396:10400   */\n      0x20\n        /* \"#utility.yul\":10391:10394   */\n      dup4\n        /* \"#utility.yul\":10387:10401   */\n      add\n        /* \"#utility.yul\":10373:10401   */\n      swap1\n      pop\n        /* \"#utility.yul\":10180:10407   */\n      swap3\n      swap2\n      pop\n      pop\n      jump\t// out\n        /* \"#utility.yul\":10413:10515   */\n    tag_126:\n        /* \"#utility.yul\":10455:10463   */\n      0x00\n        /* \"#utility.yul\":10502:10507   */\n      dup2\n        /* \"#utility.yul\":10499:10500   */\n      0x00\n        /* \"#utility.yul\":10495:10508   */\n      shr\n        /* \"#utility.yul\":10474:10508   */\n      swap1\n      pop\n        /* \"#utility.yul\":10413:10515   */\n      swap2\n      swap1\n      pop\n      jump\t// out\n        /* \"#utility.yul\":10521:10668   */\n    tag_127:\n        /* \"#utility.yul\":10579:10586   */\n      0x00\n        /* \"#utility.yul\":10619:10661   */\n      0xffffffffffffffffffffffffffffffffffffffff\n        /* \"#utility.yul\":10612:10617   */\n      dup3\n        /* \"#utility.yul\":10608:10662   */\n      and\n        /* \"#utility.yul\":10597:10662   */\n      swap1\n      pop\n        /* \"#utility.yul\":10521:10668   */\n      swap2\n      swap1\n      pop\n      jump\t// out\n        /* \"#utility.yul\":10674:10856   */\n    tag_128:\n        /* \"#utility.yul\":10751:10756   */\n      0x00\n        /* \"#utility.yul\":10776:10850   */\n      tag_232\n        /* \"#utility.yul\":10815:10849   */\n      tag_233\n        /* \"#utility.yul\":10838:10848   */\n      dup4\n        /* \"#utility.yul\":10815:10849   */\n      tag_126\n      jump\t// in\n    tag_233:\n        /* \"#utility.yul\":10776:10850   */\n      tag_127\n      jump\t// in\n    tag_232:\n        /* \"#utility.yul\":10767:10850   */\n      swap1\n      pop\n        /* \"#utility.yul\":10674:10856   */\n      swap2\n      swap1\n      pop\n      jump\t// out\n        /* \"#utility.yul\":10862:11022   */\n    tag_129:\n        /* \"#utility.yul\":10925:10930   */\n      0x00\n        /* \"#utility.yul\":10950:11015   */\n      tag_235\n        /* \"#utility.yul\":11009:11013   */\n      dup3\n        /* \"#utility.yul\":11003:11014   */\n      sload\n        /* \"#utility.yul\":10950:11015   */\n      tag_128\n      jump\t// in\n    tag_235:\n        /* \"#utility.yul\":10941:11015   */\n      swap1\n      pop\n        /* \"#utility.yul\":10862:11022   */\n      swap2\n      swap1\n      pop\n      jump\t// out\n        /* \"#utility.yul\":11028:11146   */\n    tag_130:\n        /* \"#utility.yul\":11103:11107   */\n      0x00\n        /* \"#utility.yul\":11135:11139   */\n      0x01\n        /* \"#utility.yul\":11130:11133   */\n      dup3\n        /* \"#utility.yul\":11126:11140   */\n      add\n        /* \"#utility.yul\":11118:11140   */\n      swap1\n      pop\n        /* \"#utility.yul\":11028:11146   */\n      swap2\n      swap1\n      pop\n      jump\t// out\n        /* \"#utility.yul\":11198:12065   */\n    tag_131:\n        /* \"#utility.yul\":11348:11351   */\n      0x00\n        /* \"#utility.yul\":11377:11436   */\n      tag_238\n        /* \"#utility.yul\":11430:11435   */\n      dup3\n        /* \"#utility.yul\":11377:11436   */\n      tag_121\n      jump\t// in\n    tag_238:\n        /* \"#utility.yul\":11452:11564   */\n      tag_239\n        /* \"#utility.yul\":11557:11563   */\n      dup2\n        /* \"#utility.yul\":11552:11555   */\n      dup6\n        /* \"#utility.yul\":11452:11564   */\n      tag_122\n      jump\t// in\n    tag_239:\n        /* \"#utility.yul\":11445:11564   */\n      swap4\n      pop\n        /* \"#utility.yul\":11588:11649   */\n      tag_240\n        /* \"#utility.yul\":11643:11648   */\n      dup4\n        /* \"#utility.yul\":11588:11649   */\n      tag_123\n      jump\t// in\n    tag_240:\n        /* \"#utility.yul\":11672:11679   */\n      dup1\n        /* \"#utility.yul\":11703:11704   */\n      0x00\n        /* \"#utility.yul\":11688:12040   */\n    tag_241:\n        /* \"#utility.yul\":11713:11719   */\n      dup4\n        /* \"#utility.yul\":11710:11711   */\n      dup2\n        /* \"#utility.yul\":11707:11720   */\n      lt\n        /* \"#utility.yul\":11688:12040   */\n      iszero\n      tag_243\n      jumpi\n        /* \"#utility.yul\":11783:11835   */\n      tag_244\n        /* \"#utility.yul\":11828:11834   */\n      dup3\n        /* \"#utility.yul\":11783:11835   */\n      tag_129\n      jump\t// in\n    tag_244:\n        /* \"#utility.yul\":11855:11942   */\n      tag_245\n        /* \"#utility.yul\":11938:11941   */\n      dup9\n        /* \"#utility.yul\":11923:11936   */\n      dup3\n        /* \"#utility.yul\":11855:11942   */\n      tag_125\n      jump\t// in\n    tag_245:\n        /* \"#utility.yul\":11848:11942   */\n      swap8\n      pop\n        /* \"#utility.yul\":11965:12030   */\n      tag_246\n        /* \"#utility.yul\":12023:12029   */\n      dup4\n        /* \"#utility.yul\":11965:12030   */\n      tag_130\n      jump\t// in\n    tag_246:\n        /* \"#utility.yul\":11955:12030   */\n      swap3\n      pop\n        /* \"#utility.yul\":11748:12040   */\n      pop\n        /* \"#utility.yul\":11735:11736   */\n      0x01\n        /* \"#utility.yul\":11732:11733   */\n      dup2\n        /* \"#utility.yul\":11728:11737   */\n      add\n        /* \"#utility.yul\":11723:11737   */\n      swap1\n      pop\n        /* \"#utility.yul\":11688:12040   */\n      jump(tag_241)\n    tag_243:\n        /* \"#utility.yul\":11692:11706   */\n      pop\n        /* \"#utility.yul\":12056:12059   */\n      dup6\n        /* \"#utility.yul\":12049:12059   */\n      swap4\n      pop\n        /* \"#utility.yul\":11353:12065   */\n      pop\n      pop\n      pop\n        /* \"#utility.yul\":11198:12065   */\n      swap3\n      swap2\n      pop\n      pop\n      jump\t// out\n        /* \"#utility.yul\":12071:12714   */\n    tag_69:\n        /* \"#utility.yul\":12302:12305   */\n      0x00\n        /* \"#utility.yul\":12317:12392   */\n      tag_248\n        /* \"#utility.yul\":12388:12391   */\n      dup3\n        /* \"#utility.yul\":12379:12385   */\n      dup7\n        /* \"#utility.yul\":12317:12392   */\n      tag_120\n      jump\t// in\n    tag_248:\n        /* \"#utility.yul\":12417:12419   */\n      0x20\n        /* \"#utility.yul\":12412:12415   */\n      dup3\n        /* \"#utility.yul\":12408:12420   */\n      add\n        /* \"#utility.yul\":12401:12420   */\n      swap2\n      pop\n        /* \"#utility.yul\":12430:12505   */\n      tag_249\n        /* \"#utility.yul\":12501:12504   */\n      dup3\n        /* \"#utility.yul\":12492:12498   */\n      dup6\n        /* \"#utility.yul\":12430:12505   */\n      tag_120\n      jump\t// in\n    tag_249:\n        /* \"#utility.yul\":12530:12532   */\n      0x20\n        /* \"#utility.yul\":12525:12528   */\n      dup3\n        /* \"#utility.yul\":12521:12533   */\n      add\n        /* \"#utility.yul\":12514:12533   */\n      swap2\n      pop\n        /* \"#utility.yul\":12550:12688   */\n      tag_250\n        /* \"#utility.yul\":12684:12687   */\n      dup3\n        /* \"#utility.yul\":12675:12681   */\n      dup5\n        /* \"#utility.yul\":12550:12688   */\n      tag_131\n      jump\t// in\n    tag_250:\n        /* \"#utility.yul\":12543:12688   */\n      swap2\n      pop\n        /* \"#utility.yul\":12705:12708   */\n      dup2\n        /* \"#utility.yul\":12698:12708   */\n      swap1\n      pop\n        /* \"#utility.yul\":12071:12714   */\n      swap5\n      swap4\n      pop\n      pop\n      pop\n      pop\n      jump\t// out\n        /* \"#utility.yul\":12720:12818   */\n    tag_132:\n        /* \"#utility.yul\":12771:12777   */\n      0x00\n        /* \"#utility.yul\":12805:12810   */\n      dup2\n        /* \"#utility.yul\":12799:12811   */\n      mload\n        /* \"#utility.yul\":12789:12811   */\n      swap1\n      pop\n        /* \"#utility.yul\":12720:12818   */\n      swap2\n      swap1\n      pop\n      jump\t// out\n        /* \"#utility.yul\":12824:12971   */\n    tag_133:\n        /* \"#utility.yul\":12925:12936   */\n      0x00\n        /* \"#utility.yul\":12962:12965   */\n      dup2\n        /* \"#utility.yul\":12947:12965   */\n      swap1\n      pop\n        /* \"#utility.yul\":12824:12971   */\n      swap3\n      swap2\n      pop\n      pop\n      jump\t// out\n        /* \"#utility.yul\":12977:13116   */\n    tag_134:\n        /* \"#utility.yul\":13066:13072   */\n      dup3\n        /* \"#utility.yul\":13061:13064   */\n      dup2\n        /* \"#utility.yul\":13056:13059   */\n      dup4\n        /* \"#utility.yul\":13050:13073   */\n      mcopy\n        /* \"#utility.yul\":13107:13108   */\n      0x00\n        /* \"#utility.yul\":13098:13104   */\n      dup4\n        /* \"#utility.yul\":13093:13096   */\n      dup4\n        /* \"#utility.yul\":13089:13105   */\n      add\n        /* \"#utility.yul\":13082:13109   */\n      mstore\n        /* \"#utility.yul\":12977:13116   */\n      pop\n      pop\n      pop\n      jump\t// out\n        /* \"#utility.yul\":13122:13508   */\n    tag_135:\n        /* \"#utility.yul\":13226:13229   */\n      0x00\n        /* \"#utility.yul\":13254:13292   */\n      tag_255\n        /* \"#utility.yul\":13286:13291   */\n      dup3\n        /* \"#utility.yul\":13254:13292   */\n      tag_132\n      jump\t// in\n    tag_255:\n        /* \"#utility.yul\":13308:13396   */\n      tag_256\n        /* \"#utility.yul\":13389:13395   */\n      dup2\n        /* \"#utility.yul\":13384:13387   */\n      dup6\n        /* \"#utility.yul\":13308:13396   */\n      tag_133\n      jump\t// in\n    tag_256:\n        /* \"#utility.yul\":13301:13396   */\n      swap4\n      pop\n        /* \"#utility.yul\":13405:13470   */\n      tag_257\n        /* \"#utility.yul\":13463:13469   */\n      dup2\n        /* \"#utility.yul\":13458:13461   */\n      dup6\n        /* \"#utility.yul\":13451:13455   */\n      0x20\n        /* \"#utility.yul\":13444:13449   */\n      dup7\n        /* \"#utility.yul\":13440:13456   */\n      add\n        /* \"#utility.yul\":13405:13470   */\n      tag_134\n      jump\t// in\n    tag_257:\n        /* \"#utility.yul\":13495:13501   */\n      dup1\n        /* \"#utility.yul\":13490:13493   */\n      dup5\n        /* \"#utility.yul\":13486:13502   */\n      add\n        /* \"#utility.yul\":13479:13502   */\n      swap2\n      pop\n        /* \"#utility.yul\":13230:13508   */\n      pop\n        /* \"#utility.yul\":13122:13508   */\n      swap3\n      swap2\n      pop\n      pop\n      jump\t// out\n        /* \"#utility.yul\":13514:13785   */\n    tag_71:\n        /* \"#utility.yul\":13644:13647   */\n      0x00\n        /* \"#utility.yul\":13666:13759   */\n      tag_259\n        /* \"#utility.yul\":13755:13758   */\n      dup3\n        /* \"#utility.yul\":13746:13752   */\n      dup5\n        /* \"#utility.yul\":13666:13759   */\n      tag_135\n      jump\t// in\n    tag_259:\n        /* \"#utility.yul\":13659:13759   */\n      swap2\n      pop\n        /* \"#utility.yul\":13776:13779   */\n      dup2\n        /* \"#utility.yul\":13769:13779   */\n      swap1\n      pop\n        /* \"#utility.yul\":13514:13785   */\n      swap3\n      swap2\n      pop\n      pop\n      jump\t// out\n        /* \"#utility.yul\":13791:13868   */\n    tag_136:\n        /* \"#utility.yul\":13828:13835   */\n      0x00\n        /* \"#utility.yul\":13857:13862   */\n      dup2\n        /* \"#utility.yul\":13846:13862   */\n      swap1\n      pop\n        /* \"#utility.yul\":13791:13868   */\n      swap2\n      swap1\n      pop\n      jump\t// out\n        /* \"#utility.yul\":13874:13996   */\n    tag_137:\n        /* \"#utility.yul\":13947:13971   */\n      tag_262\n        /* \"#utility.yul\":13965:13970   */\n      dup2\n        /* \"#utility.yul\":13947:13971   */\n      tag_136\n      jump\t// in\n    tag_262:\n        /* \"#utility.yul\":13940:13945   */\n      dup2\n        /* \"#utility.yul\":13937:13972   */\n      eq\n        /* \"#utility.yul\":13927:13990   */\n      tag_263\n      jumpi\n        /* \"#utility.yul\":13986:13987   */\n      0x00\n        /* \"#utility.yul\":13983:13984   */\n      dup1\n        /* \"#utility.yul\":13976:13988   */\n      revert\n        /* \"#utility.yul\":13927:13990   */\n    tag_263:\n        /* \"#utility.yul\":13874:13996   */\n      pop\n      jump\t// out\n        /* \"#utility.yul\":14002:14145   */\n    tag_138:\n        /* \"#utility.yul\":14059:14064   */\n      0x00\n        /* \"#utility.yul\":14090:14096   */\n      dup2\n        /* \"#utility.yul\":14084:14097   */\n      mload\n        /* \"#utility.yul\":14075:14097   */\n      swap1\n      pop\n        /* \"#utility.yul\":14106:14139   */\n      tag_265\n        /* \"#utility.yul\":14133:14138   */\n      dup2\n        /* \"#utility.yul\":14106:14139   */\n      tag_137\n      jump\t// in\n    tag_265:\n        /* \"#utility.yul\":14002:14145   */\n      swap3\n      swap2\n      pop\n      pop\n      jump\t// out\n        /* \"#utility.yul\":14151:14502   */\n    tag_75:\n        /* \"#utility.yul\":14221:14227   */\n      0x00\n        /* \"#utility.yul\":14270:14272   */\n      0x20\n        /* \"#utility.yul\":14258:14267   */\n      dup3\n        /* \"#utility.yul\":14249:14256   */\n      dup5\n        /* \"#utility.yul\":14245:14268   */\n      sub\n        /* \"#utility.yul\":14241:14273   */\n      slt\n        /* \"#utility.yul\":14238:14357   */\n      iszero\n      tag_267\n      jumpi\n        /* \"#utility.yul\":14276:14355   */\n      tag_268\n      tag_103\n      jump\t// in\n    tag_268:\n        /* \"#utility.yul\":14238:14357   */\n    tag_267:\n        /* \"#utility.yul\":14396:14397   */\n      0x00\n        /* \"#utility.yul\":14421:14485   */\n      tag_269\n        /* \"#utility.yul\":14477:14484   */\n      dup5\n        /* \"#utility.yul\":14468:14474   */\n      dup3\n        /* \"#utility.yul\":14457:14466   */\n      dup6\n        /* \"#utility.yul\":14453:14475   */\n      add\n        /* \"#utility.yul\":14421:14485   */\n      tag_138\n      jump\t// in\n    tag_269:\n        /* \"#utility.yul\":14411:14485   */\n      swap2\n      pop\n        /* \"#utility.yul\":14367:14495   */\n      pop\n        /* \"#utility.yul\":14151:14502   */\n      swap3\n      swap2\n      pop\n      pop\n      jump\t// out\n\n    auxdata: 0xa2646970667358221220677e9aa4cbc545d35f27aae0f8836726bd0207637f146fe55c3c94c12e78269264736f6c634300081a0033\n}\n",
				"bytecode": {
					"linkReferences": {},
					"object": "6080604052348015600e575f80fd5b50335f806101000a81548173ffffffffffffffffffffffffffffffffffffffff021916908373ffffffffffffffffffffffffffffffffffffffff160217905550610dd58061005b5f395ff3fe608060405260043610610049575f3560e01c806319974b371461004d5780633308f42d1461006357806350bed4a11461008d57806378357e5314610097578063f8edfc32146100c1575b5f80fd5b348015610058575f80fd5b506100616100fd565b005b34801561006e575f80fd5b506100776102a2565b60405161008491906107b5565b60405180910390f35b61009561032d565b005b3480156100a2575f80fd5b506100ab6104b4565b6040516100b891906107f5565b60405180910390f35b3480156100cc575f80fd5b506100e760048036038101906100e29190610845565b6104d7565b6040516100f4919061087f565b60405180910390f35b5f8054906101000a900473ffffffffffffffffffffffffffffffffffffffff1673ffffffffffffffffffffffffffffffffffffffff163373ffffffffffffffffffffffffffffffffffffffff161461018a576040517f08c379a000000000000000000000000000000000000000000000000000000000815260040161018190610918565b60405180910390fd5b5f600180549050610199610512565b6101a39190610963565b90505f309050600182815481106101bd576101bc610993565b5b905f5260205f20015f9054906101000a900473ffffffffffffffffffffffffffffffffffffffff1673ffffffffffffffffffffffffffffffffffffffff166108fc8273ffffffffffffffffffffffffffffffffffffffff163190811502906040515f60405180830381858888f1935050505015801561023e573d5f803e3d5ffd5b505f67ffffffffffffffff811115610259576102586109c0565b5b6040519080825280602002602001820160405280156102875781602001602082028036833780820191505090505b506001908051906020019061029d92919061062c565b505050565b6060600180548060200260200160405190810160405280929190818152602001828054801561032357602002820191905f5260205f20905b815f9054906101000a900473ffffffffffffffffffffffffffffffffffffffff1673ffffffffffffffffffffffffffffffffffffffff16815260200190600101908083116102da575b5050505050905090565b5f8054906101000a900473ffffffffffffffffffffffffffffffffffffffff1673ffffffffffffffffffffffffffffffffffffffff163373ffffffffffffffffffffffffffffffffffffffff16036103ba576040517f08c379a00000000000000000000000000000000000000000000000000000000081526004016103b190610a5d565b60405180910390fd5b5f15156103c561058c565b151514610407576040517f08c379a00000000000000000000000000000000000000000000000000000000081526004016103fe90610ac5565b60405180910390fd5b670de0b6b3a7640000341015610452576040517f08c379a000000000000000000000000000000000000000000000000000000000815260040161044990610b53565b60405180910390fd5b600133908060018154018082558091505060019003905f5260205f20015f9091909190916101000a81548173ffffffffffffffffffffffffffffffffffffffff021916908373ffffffffffffffffffffffffffffffffffffffff160217905550565b5f8054906101000a900473ffffffffffffffffffffffffffffffffffffffff1681565b600181815481106104e6575f80fd5b905f5260205f20015f915054906101000a900473ffffffffffffffffffffffffffffffffffffffff1681565b5f60024443600160405160200161052b93929190610ca1565b6040516020818303038152906040526040516105479190610d2b565b602060405180830381855afa158015610562573d5f803e3d5ffd5b5050506040513d601f19601f820116820180604052508101906105859190610d74565b5f1c905090565b5f805f90505b60018054905081101561062457600181815481106105b3576105b2610993565b5b905f5260205f20015f9054906101000a900473ffffffffffffffffffffffffffffffffffffffff1673ffffffffffffffffffffffffffffffffffffffff163373ffffffffffffffffffffffffffffffffffffffff1603610617576001915050610629565b8080600101915050610592565b505f90505b90565b828054828255905f5260205f209081019282156106a2579160200282015b828111156106a1578251825f6101000a81548173ffffffffffffffffffffffffffffffffffffffff021916908373ffffffffffffffffffffffffffffffffffffffff1602179055509160200191906001019061064a565b5b5090506106af91906106b3565b5090565b5b808211156106ca575f815f9055506001016106b4565b5090565b5f81519050919050565b5f82825260208201905092915050565b5f819050602082019050919050565b5f73ffffffffffffffffffffffffffffffffffffffff82169050919050565b5f610720826106f7565b9050919050565b61073081610716565b82525050565b5f6107418383610727565b60208301905092915050565b5f602082019050919050565b5f610763826106ce565b61076d81856106d8565b9350610778836106e8565b805f5b838110156107a857815161078f8882610736565b975061079a8361074d565b92505060018101905061077b565b5085935050505092915050565b5f6020820190508181035f8301526107cd8184610759565b905092915050565b5f6107df826106f7565b9050919050565b6107ef816107d5565b82525050565b5f6020820190506108085f8301846107e6565b92915050565b5f80fd5b5f819050919050565b61082481610812565b811461082e575f80fd5b50565b5f8135905061083f8161081b565b92915050565b5f6020828403121561085a5761085961080e565b5b5f61086784828501610831565b91505092915050565b61087981610716565b82525050565b5f6020820190506108925f830184610870565b92915050565b5f82825260208201905092915050565b7f4f6e6c79206d616e616e6765722063616e207069636b7570207468652077696e5f8201527f6e65720000000000000000000000000000000000000000000000000000000000602082015250565b5f610902602383610898565b915061090d826108a8565b604082019050919050565b5f6020820190508181035f83015261092f816108f6565b9050919050565b7f4e487b71000000000000000000000000000000000000000000000000000000005f52601260045260245ffd5b5f61096d82610812565b915061097883610812565b92508261098857610987610936565b5b828206905092915050565b7f4e487b71000000000000000000000000000000000000000000000000000000005f52603260045260245ffd5b7f4e487b71000000000000000000000000000000000000000000000000000000005f52604160045260245ffd5b7f4d616e61676572206973206e6f7420417574686f726f7a656420746f205061725f8201527f7469636970617465000000000000000000000000000000000000000000000000602082015250565b5f610a47602883610898565b9150610a52826109ed565b604082019050919050565b5f6020820190508181035f830152610a7481610a3b565b9050919050565b7f506c6179657220616c726561647920456e7465726564000000000000000000005f82015250565b5f610aaf601683610898565b9150610aba82610a7b565b602082019050919050565b5f6020820190508181035f830152610adc81610aa3565b9050919050565b7f4d696e696d756d2041626f757420726571756972656420746f207061727469635f8201527f6970617465000000000000000000000000000000000000000000000000000000602082015250565b5f610b3d602583610898565b9150610b4882610ae3565b604082019050919050565b5f6020820190508181035f830152610b6a81610b31565b9050919050565b5f819050919050565b610b8b610b8682610812565b610b71565b82525050565b5f81549050919050565b5f81905092915050565b5f819050815f5260205f209050919050565b610bc081610716565b82525050565b5f610bd18383610bb7565b60208301905092915050565b5f815f1c9050919050565b5f73ffffffffffffffffffffffffffffffffffffffff82169050919050565b5f610c19610c1483610bdd565b610be8565b9050919050565b5f610c2b8254610c07565b9050919050565b5f600182019050919050565b5f610c4882610b91565b610c528185610b9b565b9350610c5d83610ba5565b805f5b83811015610c9457610c7182610c20565b610c7b8882610bc6565b9750610c8683610c32565b925050600181019050610c60565b5085935050505092915050565b5f610cac8286610b7a565b602082019150610cbc8285610b7a565b602082019150610ccc8284610c3e565b9150819050949350505050565b5f81519050919050565b5f81905092915050565b8281835e5f83830152505050565b5f610d0582610cd9565b610d0f8185610ce3565b9350610d1f818560208601610ced565b80840191505092915050565b5f610d368284610cfb565b915081905092915050565b5f819050919050565b610d5381610d41565b8114610d5d575f80fd5b50565b5f81519050610d6e81610d4a565b92915050565b5f60208284031215610d8957610d8861080e565b5b5f610d9684828501610d60565b9150509291505056fea2646970667358221220677e9aa4cbc545d35f27aae0f8836726bd0207637f146fe55c3c94c12e78269264736f6c634300081a0033",
					"opcodes": "PUSH1 0x80 PUSH1 0x40 MSTORE CALLVALUE DUP1 ISZERO PUSH1 0xE JUMPI PUSH0 DUP1 REVERT JUMPDEST POP CALLER PUSH0 DUP1 PUSH2 0x100 EXP DUP2 SLOAD DUP2 PUSH20 0xFFFFFFFFFFFFFFFFFFFFFFFFFFFFFFFFFFFFFFFF MUL NOT AND SWAP1 DUP4 PUSH20 0xFFFFFFFFFFFFFFFFFFFFFFFFFFFFFFFFFFFFFFFF AND MUL OR SWAP1 SSTORE POP PUSH2 0xDD5 DUP1 PUSH2 0x5B PUSH0 CODECOPY PUSH0 RETURN INVALID PUSH1 0x80 PUSH1 0x40 MSTORE PUSH1 0x4 CALLDATASIZE LT PUSH2 0x49 JUMPI PUSH0 CALLDATALOAD PUSH1 0xE0 SHR DUP1 PUSH4 0x19974B37 EQ PUSH2 0x4D JUMPI DUP1 PUSH4 0x3308F42D EQ PUSH2 0x63 JUMPI DUP1 PUSH4 0x50BED4A1 EQ PUSH2 0x8D JUMPI DUP1 PUSH4 0x78357E53 EQ PUSH2 0x97 JUMPI DUP1 PUSH4 0xF8EDFC32 EQ PUSH2 0xC1 JUMPI JUMPDEST PUSH0 DUP1 REVERT JUMPDEST CALLVALUE DUP1 ISZERO PUSH2 0x58 JUMPI PUSH0 DUP1 REVERT JUMPDEST POP PUSH2 0x61 PUSH2 0xFD JUMP JUMPDEST STOP JUMPDEST CALLVALUE DUP1 ISZERO PUSH2 0x6E JUMPI PUSH0 DUP1 REVERT JUMPDEST POP PUSH2 0x77 PUSH2 0x2A2 JUMP JUMPDEST PUSH1 0x40 MLOAD PUSH2 0x84 SWAP2 SWAP1 PUSH2 0x7B5 JUMP JUMPDEST PUSH1 0x40 MLOAD DUP1 SWAP2 SUB SWAP1 RETURN JUMPDEST PUSH2 0x95 PUSH2 0x32D JUMP JUMPDEST STOP JUMPDEST CALLVALUE DUP1 ISZERO PUSH2 0xA2 JUMPI PUSH0 DUP1 REVERT JUMPDEST POP PUSH2 0xAB PUSH2 0x4B4 JUMP JUMPDEST PUSH1 0x40 MLOAD PUSH2 0xB8 SWAP2 SWAP1 PUSH2 0x7F5 JUMP JUMPDEST PUSH1 0x40 MLOAD DUP1 SWAP2 SUB SWAP1 RETURN JUMPDEST CALLVALUE DUP1 ISZERO PUSH2 0xCC JUMPI PUSH0 DUP1 REVERT JUMPDEST POP PUSH2 0xE7 PUSH1 0x4 DUP1 CALLDATASIZE SUB DUP2 ADD SWAP1 PUSH2 0xE2 SWAP2 SWAP1 PUSH2 0x845 JUMP JUMPDEST PUSH2 0x4D7 JUMP JUMPDEST PUSH1 0x40 MLOAD PUSH2 0xF4 SWAP2 SWAP1 PUSH2 0x87F JUMP JUMPDEST PUSH1 0x40 MLOAD DUP1 SWAP2 SUB SWAP1 RETURN JUMPDEST PUSH0 DUP1 SLOAD SWAP1 PUSH2 0x100 EXP SWAP1 DIV PUSH20 0xFFFFFFFFFFFFFFFFFFFFFFFFFFFFFFFFFFFFFFFF AND PUSH20 0xFFFFFFFFFFFFFFFFFFFFFFFFFFFFFFFFFFFFFFFF AND CALLER PUSH20 0xFFFFFFFFFFFFFFFFFFFFFFFFFFFFFFFFFFFFFFFF AND EQ PUSH2 0x18A JUMPI PUSH1 0x40 MLOAD PUSH32 0x8C379A000000000000000000000000000000000000000000000000000000000 DUP2 MSTORE PUSH1 0x4 ADD PUSH2 0x181 SWAP1 PUSH2 0x918 JUMP JUMPDEST PUSH1 0x40 MLOAD DUP1 SWAP2 SUB SWAP1 REVERT JUMPDEST PUSH0 PUSH1 0x1 DUP1 SLOAD SWAP1 POP PUSH2 0x199 PUSH2 0x512 JUMP JUMPDEST PUSH2 0x1A3 SWAP2 SWAP1 PUSH2 0x963 JUMP JUMPDEST SWAP1 POP PUSH0 ADDRESS SWAP1 POP PUSH1 0x1 DUP3 DUP2 SLOAD DUP2 LT PUSH2 0x1BD JUMPI PUSH2 0x1BC PUSH2 0x993 JUMP JUMPDEST JUMPDEST SWAP1 PUSH0 MSTORE PUSH1 0x20 PUSH0 KECCAK256 ADD PUSH0 SWAP1 SLOAD SWAP1 PUSH2 0x100 EXP SWAP1 DIV PUSH20 0xFFFFFFFFFFFFFFFFFFFFFFFFFFFFFFFFFFFFFFFF AND PUSH20 0xFFFFFFFFFFFFFFFFFFFFFFFFFFFFFFFFFFFFFFFF AND PUSH2 0x8FC DUP3 PUSH20 0xFFFFFFFFFFFFFFFFFFFFFFFFFFFFFFFFFFFFFFFF AND BALANCE SWAP1 DUP2 ISZERO MUL SWAP1 PUSH1 0x40 MLOAD PUSH0 PUSH1 0x40 MLOAD DUP1 DUP4 SUB DUP2 DUP6 DUP9 DUP9 CALL SWAP4 POP POP POP POP ISZERO DUP1 ISZERO PUSH2 0x23E JUMPI RETURNDATASIZE PUSH0 DUP1 RETURNDATACOPY RETURNDATASIZE PUSH0 REVERT JUMPDEST POP PUSH0 PUSH8 0xFFFFFFFFFFFFFFFF DUP2 GT ISZERO PUSH2 0x259 JUMPI PUSH2 0x258 PUSH2 0x9C0 JUMP JUMPDEST JUMPDEST PUSH1 0x40 MLOAD SWAP1 DUP1 DUP3 MSTORE DUP1 PUSH1 0x20 MUL PUSH1 0x20 ADD DUP3 ADD PUSH1 0x40 MSTORE DUP1 ISZERO PUSH2 0x287 JUMPI DUP2 PUSH1 0x20 ADD PUSH1 0x20 DUP3 MUL DUP1 CALLDATASIZE DUP4 CALLDATACOPY DUP1 DUP3 ADD SWAP2 POP POP SWAP1 POP JUMPDEST POP PUSH1 0x1 SWAP1 DUP1 MLOAD SWAP1 PUSH1 0x20 ADD SWAP1 PUSH2 0x29D SWAP3 SWAP2 SWAP1 PUSH2 0x62C JUMP JUMPDEST POP POP POP JUMP JUMPDEST PUSH1 0x60 PUSH1 0x1 DUP1 SLOAD DUP1 PUSH1 0x20 MUL PUSH1 0x20 ADD PUSH1 0x40 MLOAD SWAP1 DUP2 ADD PUSH1 0x40 MSTORE DUP1 SWAP3 SWAP2 SWAP1 DUP2 DUP2 MSTORE PUSH1 0x20 ADD DUP3 DUP1 SLOAD DUP1 ISZERO PUSH2 0x323 JUMPI PUSH1 0x20 MUL DUP3 ADD SWAP2 SWAP1 PUSH0 MSTORE PUSH1 0x20 PUSH0 KECCAK256 SWAP1 JUMPDEST DUP2 PUSH0 SWAP1 SLOAD SWAP1 PUSH2 0x100 EXP SWAP1 DIV PUSH20 0xFFFFFFFFFFFFFFFFFFFFFFFFFFFFFFFFFFFFFFFF AND PUSH20 0xFFFFFFFFFFFFFFFFFFFFFFFFFFFFFFFFFFFFFFFF AND DUP2 MSTORE PUSH1 0x20 ADD SWAP1 PUSH1 0x1 ADD SWAP1 DUP1 DUP4 GT PUSH2 0x2DA JUMPI JUMPDEST POP POP POP POP POP SWAP1 POP SWAP1 JUMP JUMPDEST PUSH0 DUP1 SLOAD SWAP1 PUSH2 0x100 EXP SWAP1 DIV PUSH20 0xFFFFFFFFFFFFFFFFFFFFFFFFFFFFFFFFFFFFFFFF AND PUSH20 0xFFFFFFFFFFFFFFFFFFFFFFFFFFFFFFFFFFFFFFFF AND CALLER PUSH20 0xFFFFFFFFFFFFFFFFFFFFFFFFFFFFFFFFFFFFFFFF AND SUB PUSH2 0x3BA JUMPI PUSH1 0x40 MLOAD PUSH32 0x8C379A000000000000000000000000000000000000000000000000000000000 DUP2 MSTORE PUSH1 0x4 ADD PUSH2 0x3B1 SWAP1 PUSH2 0xA5D JUMP JUMPDEST PUSH1 0x40 MLOAD DUP1 SWAP2 SUB SWAP1 REVERT JUMPDEST PUSH0 ISZERO ISZERO PUSH2 0x3C5 PUSH2 0x58C JUMP JUMPDEST ISZERO ISZERO EQ PUSH2 0x407 JUMPI PUSH1 0x40 MLOAD PUSH32 0x8C379A000000000000000000000000000000000000000000000000000000000 DUP2 MSTORE PUSH1 0x4 ADD PUSH2 0x3FE SWAP1 PUSH2 0xAC5 JUMP JUMPDEST PUSH1 0x40 MLOAD DUP1 SWAP2 SUB SWAP1 REVERT JUMPDEST PUSH8 0xDE0B6B3A7640000 CALLVALUE LT ISZERO PUSH2 0x452 JUMPI PUSH1 0x40 MLOAD PUSH32 0x8C379A000000000000000000000000000000000000000000000000000000000 DUP2 MSTORE PUSH1 0x4 ADD PUSH2 0x449 SWAP1 PUSH2 0xB53 JUMP JUMPDEST PUSH1 0x40 MLOAD DUP1 SWAP2 SUB SWAP1 REVERT JUMPDEST PUSH1 0x1 CALLER SWAP1 DUP1 PUSH1 0x1 DUP2 SLOAD ADD DUP1 DUP3 SSTORE DUP1 SWAP2 POP POP PUSH1 0x1 SWAP1 SUB SWAP1 PUSH0 MSTORE PUSH1 0x20 PUSH0 KECCAK256 ADD PUSH0 SWAP1 SWAP2 SWAP1 SWAP2 SWAP1 SWAP2 PUSH2 0x100 EXP DUP2 SLOAD DUP2 PUSH20 0xFFFFFFFFFFFFFFFFFFFFFFFFFFFFFFFFFFFFFFFF MUL NOT AND SWAP1 DUP4 PUSH20 0xFFFFFFFFFFFFFFFFFFFFFFFFFFFFFFFFFFFFFFFF AND MUL OR SWAP1 SSTORE POP JUMP JUMPDEST PUSH0 DUP1 SLOAD SWAP1 PUSH2 0x100 EXP SWAP1 DIV PUSH20 0xFFFFFFFFFFFFFFFFFFFFFFFFFFFFFFFFFFFFFFFF AND DUP2 JUMP JUMPDEST PUSH1 0x1 DUP2 DUP2 SLOAD DUP2 LT PUSH2 0x4E6 JUMPI PUSH0 DUP1 REVERT JUMPDEST SWAP1 PUSH0 MSTORE PUSH1 0x20 PUSH0 KECCAK256 ADD PUSH0 SWAP2 POP SLOAD SWAP1 PUSH2 0x100 EXP SWAP1 DIV PUSH20 0xFFFFFFFFFFFFFFFFFFFFFFFFFFFFFFFFFFFFFFFF AND DUP2 JUMP JUMPDEST PUSH0 PUSH1 0x2 PREVRANDAO NUMBER PUSH1 0x1 PUSH1 0x40 MLOAD PUSH1 0x20 ADD PUSH2 0x52B SWAP4 SWAP3 SWAP2 SWAP1 PUSH2 0xCA1 JUMP JUMPDEST PUSH1 0x40 MLOAD PUSH1 0x20 DUP2 DUP4 SUB SUB DUP2 MSTORE SWAP1 PUSH1 0x40 MSTORE PUSH1 0x40 MLOAD PUSH2 0x547 SWAP2 SWAP1 PUSH2 0xD2B JUMP JUMPDEST PUSH1 0x20 PUSH1 0x40 MLOAD DUP1 DUP4 SUB DUP2 DUP6 GAS STATICCALL ISZERO DUP1 ISZERO PUSH2 0x562 JUMPI RETURNDATASIZE PUSH0 DUP1 RETURNDATACOPY RETURNDATASIZE PUSH0 REVERT JUMPDEST POP POP POP PUSH1 0x40 MLOAD RETURNDATASIZE PUSH1 0x1F NOT PUSH1 0x1F DUP3 ADD AND DUP3 ADD DUP1 PUSH1 0x40 MSTORE POP DUP2 ADD SWAP1 PUSH2 0x585 SWAP2 SWAP1 PUSH2 0xD74 JUMP JUMPDEST PUSH0 SHR SWAP1 POP SWAP1 JUMP JUMPDEST PUSH0 DUP1 PUSH0 SWAP1 POP JUMPDEST PUSH1 0x1 DUP1 SLOAD SWAP1 POP DUP2 LT ISZERO PUSH2 0x624 JUMPI PUSH1 0x1 DUP2 DUP2 SLOAD DUP2 LT PUSH2 0x5B3 JUMPI PUSH2 0x5B2 PUSH2 0x993 JUMP JUMPDEST JUMPDEST SWAP1 PUSH0 MSTORE PUSH1 0x20 PUSH0 KECCAK256 ADD PUSH0 SWAP1 SLOAD SWAP1 PUSH2 0x100 EXP SWAP1 DIV PUSH20 0xFFFFFFFFFFFFFFFFFFFFFFFFFFFFFFFFFFFFFFFF AND PUSH20 0xFFFFFFFFFFFFFFFFFFFFFFFFFFFFFFFFFFFFFFFF AND CALLER PUSH20 0xFFFFFFFFFFFFFFFFFFFFFFFFFFFFFFFFFFFFFFFF AND SUB PUSH2 0x617 JUMPI PUSH1 0x1 SWAP2 POP POP PUSH2 0x629 JUMP JUMPDEST DUP1 DUP1 PUSH1 0x1 ADD SWAP2 POP POP PUSH2 0x592 JUMP JUMPDEST POP PUSH0 SWAP1 POP JUMPDEST SWAP1 JUMP JUMPDEST DUP3 DUP1 SLOAD DUP3 DUP3 SSTORE SWAP1 PUSH0 MSTORE PUSH1 0x20 PUSH0 KECCAK256 SWAP1 DUP2 ADD SWAP3 DUP3 ISZERO PUSH2 0x6A2 JUMPI SWAP2 PUSH1 0x20 MUL DUP3 ADD JUMPDEST DUP3 DUP2 GT ISZERO PUSH2 0x6A1 JUMPI DUP3 MLOAD DUP3 PUSH0 PUSH2 0x100 EXP DUP2 SLOAD DUP2 PUSH20 0xFFFFFFFFFFFFFFFFFFFFFFFFFFFFFFFFFFFFFFFF MUL NOT AND SWAP1 DUP4 PUSH20 0xFFFFFFFFFFFFFFFFFFFFFFFFFFFFFFFFFFFFFFFF AND MUL OR SWAP1 SSTORE POP SWAP2 PUSH1 0x20 ADD SWAP2 SWAP1 PUSH1 0x1 ADD SWAP1 PUSH2 0x64A JUMP JUMPDEST JUMPDEST POP SWAP1 POP PUSH2 0x6AF SWAP2 SWAP1 PUSH2 0x6B3 JUMP JUMPDEST POP SWAP1 JUMP JUMPDEST JUMPDEST DUP1 DUP3 GT ISZERO PUSH2 0x6CA JUMPI PUSH0 DUP2 PUSH0 SWAP1 SSTORE POP PUSH1 0x1 ADD PUSH2 0x6B4 JUMP JUMPDEST POP SWAP1 JUMP JUMPDEST PUSH0 DUP2 MLOAD SWAP1 POP SWAP2 SWAP1 POP JUMP JUMPDEST PUSH0 DUP3 DUP3 MSTORE PUSH1 0x20 DUP3 ADD SWAP1 POP SWAP3 SWAP2 POP POP JUMP JUMPDEST PUSH0 DUP2 SWAP1 POP PUSH1 0x20 DUP3 ADD SWAP1 POP SWAP2 SWAP1 POP JUMP JUMPDEST PUSH0 PUSH20 0xFFFFFFFFFFFFFFFFFFFFFFFFFFFFFFFFFFFFFFFF DUP3 AND SWAP1 POP SWAP2 SWAP1 POP JUMP JUMPDEST PUSH0 PUSH2 0x720 DUP3 PUSH2 0x6F7 JUMP JUMPDEST SWAP1 POP SWAP2 SWAP1 POP JUMP JUMPDEST PUSH2 0x730 DUP2 PUSH2 0x716 JUMP JUMPDEST DUP3 MSTORE POP POP JUMP JUMPDEST PUSH0 PUSH2 0x741 DUP4 DUP4 PUSH2 0x727 JUMP JUMPDEST PUSH1 0x20 DUP4 ADD SWAP1 POP SWAP3 SWAP2 POP POP JUMP JUMPDEST PUSH0 PUSH1 0x20 DUP3 ADD SWAP1 POP SWAP2 SWAP1 POP JUMP JUMPDEST PUSH0 PUSH2 0x763 DUP3 PUSH2 0x6CE JUMP JUMPDEST PUSH2 0x76D DUP2 DUP6 PUSH2 0x6D8 JUMP JUMPDEST SWAP4 POP PUSH2 0x778 DUP4 PUSH2 0x6E8 JUMP JUMPDEST DUP1 PUSH0 JUMPDEST DUP4 DUP2 LT ISZERO PUSH2 0x7A8 JUMPI DUP2 MLOAD PUSH2 0x78F DUP9 DUP3 PUSH2 0x736 JUMP JUMPDEST SWAP8 POP PUSH2 0x79A DUP4 PUSH2 0x74D JUMP JUMPDEST SWAP3 POP POP PUSH1 0x1 DUP2 ADD SWAP1 POP PUSH2 0x77B JUMP JUMPDEST POP DUP6 SWAP4 POP POP POP POP SWAP3 SWAP2 POP POP JUMP JUMPDEST PUSH0 PUSH1 0x20 DUP3 ADD SWAP1 POP DUP2 DUP2 SUB PUSH0 DUP4 ADD MSTORE PUSH2 0x7CD DUP2 DUP5 PUSH2 0x759 JUMP JUMPDEST SWAP1 POP SWAP3 SWAP2 POP POP JUMP JUMPDEST PUSH0 PUSH2 0x7DF DUP3 PUSH2 0x6F7 JUMP JUMPDEST SWAP1 POP SWAP2 SWAP1 POP JUMP JUMPDEST PUSH2 0x7EF DUP2 PUSH2 0x7D5 JUMP JUMPDEST DUP3 MSTORE POP POP JUMP JUMPDEST PUSH0 PUSH1 0x20 DUP3 ADD SWAP1 POP PUSH2 0x808 PUSH0 DUP4 ADD DUP5 PUSH2 0x7E6 JUMP JUMPDEST SWAP3 SWAP2 POP POP JUMP JUMPDEST PUSH0 DUP1 REVERT JUMPDEST PUSH0 DUP2 SWAP1 POP SWAP2 SWAP1 POP JUMP JUMPDEST PUSH2 0x824 DUP2 PUSH2 0x812 JUMP JUMPDEST DUP2 EQ PUSH2 0x82E JUMPI PUSH0 DUP1 REVERT JUMPDEST POP JUMP JUMPDEST PUSH0 DUP2 CALLDATALOAD SWAP1 POP PUSH2 0x83F DUP2 PUSH2 0x81B JUMP JUMPDEST SWAP3 SWAP2 POP POP JUMP JUMPDEST PUSH0 PUSH1 0x20 DUP3 DUP5 SUB SLT ISZERO PUSH2 0x85A JUMPI PUSH2 0x859 PUSH2 0x80E JUMP JUMPDEST JUMPDEST PUSH0 PUSH2 0x867 DUP5 DUP3 DUP6 ADD PUSH2 0x831 JUMP JUMPDEST SWAP2 POP POP SWAP3 SWAP2 POP POP JUMP JUMPDEST PUSH2 0x879 DUP2 PUSH2 0x716 JUMP JUMPDEST DUP3 MSTORE POP POP JUMP JUMPDEST PUSH0 PUSH1 0x20 DUP3 ADD SWAP1 POP PUSH2 0x892 PUSH0 DUP4 ADD DUP5 PUSH2 0x870 JUMP JUMPDEST SWAP3 SWAP2 POP POP JUMP JUMPDEST PUSH0 DUP3 DUP3 MSTORE PUSH1 0x20 DUP3 ADD SWAP1 POP SWAP3 SWAP2 POP POP JUMP JUMPDEST PUSH32 0x4F6E6C79206D616E616E6765722063616E207069636B7570207468652077696E PUSH0 DUP3 ADD MSTORE PUSH32 0x6E65720000000000000000000000000000000000000000000000000000000000 PUSH1 0x20 DUP3 ADD MSTORE POP JUMP JUMPDEST PUSH0 PUSH2 0x902 PUSH1 0x23 DUP4 PUSH2 0x898 JUMP JUMPDEST SWAP2 POP PUSH2 0x90D DUP3 PUSH2 0x8A8 JUMP JUMPDEST PUSH1 0x40 DUP3 ADD SWAP1 POP SWAP2 SWAP1 POP JUMP JUMPDEST PUSH0 PUSH1 0x20 DUP3 ADD SWAP1 POP DUP2 DUP2 SUB PUSH0 DUP4 ADD MSTORE PUSH2 0x92F DUP2 PUSH2 0x8F6 JUMP JUMPDEST SWAP1 POP SWAP2 SWAP1 POP JUMP JUMPDEST PUSH32 0x4E487B7100000000000000000000000000000000000000000000000000000000 PUSH0 MSTORE PUSH1 0x12 PUSH1 0x4 MSTORE PUSH1 0x24 PUSH0 REVERT JUMPDEST PUSH0 PUSH2 0x96D DUP3 PUSH2 0x812 JUMP JUMPDEST SWAP2 POP PUSH2 0x978 DUP4 PUSH2 0x812 JUMP JUMPDEST SWAP3 POP DUP3 PUSH2 0x988 JUMPI PUSH2 0x987 PUSH2 0x936 JUMP JUMPDEST JUMPDEST DUP3 DUP3 MOD SWAP1 POP SWAP3 SWAP2 POP POP JUMP JUMPDEST PUSH32 0x4E487B7100000000000000000000000000000000000000000000000000000000 PUSH0 MSTORE PUSH1 0x32 PUSH1 0x4 MSTORE PUSH1 0x24 PUSH0 REVERT JUMPDEST PUSH32 0x4E487B7100000000000000000000000000000000000000000000000000000000 PUSH0 MSTORE PUSH1 0x41 PUSH1 0x4 MSTORE PUSH1 0x24 PUSH0 REVERT JUMPDEST PUSH32 0x4D616E61676572206973206E6F7420417574686F726F7A656420746F20506172 PUSH0 DUP3 ADD MSTORE PUSH32 0x7469636970617465000000000000000000000000000000000000000000000000 PUSH1 0x20 DUP3 ADD MSTORE POP JUMP JUMPDEST PUSH0 PUSH2 0xA47 PUSH1 0x28 DUP4 PUSH2 0x898 JUMP JUMPDEST SWAP2 POP PUSH2 0xA52 DUP3 PUSH2 0x9ED JUMP JUMPDEST PUSH1 0x40 DUP3 ADD SWAP1 POP SWAP2 SWAP1 POP JUMP JUMPDEST PUSH0 PUSH1 0x20 DUP3 ADD SWAP1 POP DUP2 DUP2 SUB PUSH0 DUP4 ADD MSTORE PUSH2 0xA74 DUP2 PUSH2 0xA3B JUMP JUMPDEST SWAP1 POP SWAP2 SWAP1 POP JUMP JUMPDEST PUSH32 0x506C6179657220616C726561647920456E746572656400000000000000000000 PUSH0 DUP3 ADD MSTORE POP JUMP JUMPDEST PUSH0 PUSH2 0xAAF PUSH1 0x16 DUP4 PUSH2 0x898 JUMP JUMPDEST SWAP2 POP PUSH2 0xABA DUP3 PUSH2 0xA7B JUMP JUMPDEST PUSH1 0x20 DUP3 ADD SWAP1 POP SWAP2 SWAP1 POP JUMP JUMPDEST PUSH0 PUSH1 0x20 DUP3 ADD SWAP1 POP DUP2 DUP2 SUB PUSH0 DUP4 ADD MSTORE PUSH2 0xADC DUP2 PUSH2 0xAA3 JUMP JUMPDEST SWAP1 POP SWAP2 SWAP1 POP JUMP JUMPDEST PUSH32 0x4D696E696D756D2041626F757420726571756972656420746F20706172746963 PUSH0 DUP3 ADD MSTORE PUSH32 0x6970617465000000000000000000000000000000000000000000000000000000 PUSH1 0x20 DUP3 ADD MSTORE POP JUMP JUMPDEST PUSH0 PUSH2 0xB3D PUSH1 0x25 DUP4 PUSH2 0x898 JUMP JUMPDEST SWAP2 POP PUSH2 0xB48 DUP3 PUSH2 0xAE3 JUMP JUMPDEST PUSH1 0x40 DUP3 ADD SWAP1 POP SWAP2 SWAP1 POP JUMP JUMPDEST PUSH0 PUSH1 0x20 DUP3 ADD SWAP1 POP DUP2 DUP2 SUB PUSH0 DUP4 ADD MSTORE PUSH2 0xB6A DUP2 PUSH2 0xB31 JUMP JUMPDEST SWAP1 POP SWAP2 SWAP1 POP JUMP JUMPDEST PUSH0 DUP2 SWAP1 POP SWAP2 SWAP1 POP JUMP JUMPDEST PUSH2 0xB8B PUSH2 0xB86 DUP3 PUSH2 0x812 JUMP JUMPDEST PUSH2 0xB71 JUMP JUMPDEST DUP3 MSTORE POP POP JUMP JUMPDEST PUSH0 DUP2 SLOAD SWAP1 POP SWAP2 SWAP1 POP JUMP JUMPDEST PUSH0 DUP2 SWAP1 POP SWAP3 SWAP2 POP POP JUMP JUMPDEST PUSH0 DUP2 SWAP1 POP DUP2 PUSH0 MSTORE PUSH1 0x20 PUSH0 KECCAK256 SWAP1 POP SWAP2 SWAP1 POP JUMP JUMPDEST PUSH2 0xBC0 DUP2 PUSH2 0x716 JUMP JUMPDEST DUP3 MSTORE POP POP JUMP JUMPDEST PUSH0 PUSH2 0xBD1 DUP4 DUP4 PUSH2 0xBB7 JUMP JUMPDEST PUSH1 0x20 DUP4 ADD SWAP1 POP SWAP3 SWAP2 POP POP JUMP JUMPDEST PUSH0 DUP2 PUSH0 SHR SWAP1 POP SWAP2 SWAP1 POP JUMP JUMPDEST PUSH0 PUSH20 0xFFFFFFFFFFFFFFFFFFFFFFFFFFFFFFFFFFFFFFFF DUP3 AND SWAP1 POP SWAP2 SWAP1 POP JUMP JUMPDEST PUSH0 PUSH2 0xC19 PUSH2 0xC14 DUP4 PUSH2 0xBDD JUMP JUMPDEST PUSH2 0xBE8 JUMP JUMPDEST SWAP1 POP SWAP2 SWAP1 POP JUMP JUMPDEST PUSH0 PUSH2 0xC2B DUP3 SLOAD PUSH2 0xC07 JUMP JUMPDEST SWAP1 POP SWAP2 SWAP1 POP JUMP JUMPDEST PUSH0 PUSH1 0x1 DUP3 ADD SWAP1 POP SWAP2 SWAP1 POP JUMP JUMPDEST PUSH0 PUSH2 0xC48 DUP3 PUSH2 0xB91 JUMP JUMPDEST PUSH2 0xC52 DUP2 DUP6 PUSH2 0xB9B JUMP JUMPDEST SWAP4 POP PUSH2 0xC5D DUP4 PUSH2 0xBA5 JUMP JUMPDEST DUP1 PUSH0 JUMPDEST DUP4 DUP2 LT ISZERO PUSH2 0xC94 JUMPI PUSH2 0xC71 DUP3 PUSH2 0xC20 JUMP JUMPDEST PUSH2 0xC7B DUP9 DUP3 PUSH2 0xBC6 JUMP JUMPDEST SWAP8 POP PUSH2 0xC86 DUP4 PUSH2 0xC32 JUMP JUMPDEST SWAP3 POP POP PUSH1 0x1 DUP2 ADD SWAP1 POP PUSH2 0xC60 JUMP JUMPDEST POP DUP6 SWAP4 POP POP POP POP SWAP3 SWAP2 POP POP JUMP JUMPDEST PUSH0 PUSH2 0xCAC DUP3 DUP7 PUSH2 0xB7A JUMP JUMPDEST PUSH1 0x20 DUP3 ADD SWAP2 POP PUSH2 0xCBC DUP3 DUP6 PUSH2 0xB7A JUMP JUMPDEST PUSH1 0x20 DUP3 ADD SWAP2 POP PUSH2 0xCCC DUP3 DUP5 PUSH2 0xC3E JUMP JUMPDEST SWAP2 POP DUP2 SWAP1 POP SWAP5 SWAP4 POP POP POP POP JUMP JUMPDEST PUSH0 DUP2 MLOAD SWAP1 POP SWAP2 SWAP1 POP JUMP JUMPDEST PUSH0 DUP2 SWAP1 POP SWAP3 SWAP2 POP POP JUMP JUMPDEST DUP3 DUP2 DUP4 MCOPY PUSH0 DUP4 DUP4 ADD MSTORE POP POP POP JUMP JUMPDEST PUSH0 PUSH2 0xD05 DUP3 PUSH2 0xCD9 JUMP JUMPDEST PUSH2 0xD0F DUP2 DUP6 PUSH2 0xCE3 JUMP JUMPDEST SWAP4 POP PUSH2 0xD1F DUP2 DUP6 PUSH1 0x20 DUP7 ADD PUSH2 0xCED JUMP JUMPDEST DUP1 DUP5 ADD SWAP2 POP POP SWAP3 SWAP2 POP POP JUMP JUMPDEST PUSH0 PUSH2 0xD36 DUP3 DUP5 PUSH2 0xCFB JUMP JUMPDEST SWAP2 POP DUP2 SWAP1 POP SWAP3 SWAP2 POP POP JUMP JUMPDEST PUSH0 DUP2 SWAP1 POP SWAP2 SWAP1 POP JUMP JUMPDEST PUSH2 0xD53 DUP2 PUSH2 0xD41 JUMP JUMPDEST DUP2 EQ PUSH2 0xD5D JUMPI PUSH0 DUP1 REVERT JUMPDEST POP JUMP JUMPDEST PUSH0 DUP2 MLOAD SWAP1 POP PUSH2 0xD6E DUP2 PUSH2 0xD4A JUMP JUMPDEST SWAP3 SWAP2 POP POP JUMP JUMPDEST PUSH0 PUSH1 0x20 DUP3 DUP5 SUB SLT ISZERO PUSH2 0xD89 JUMPI PUSH2 0xD88 PUSH2 0x80E JUMP JUMPDEST JUMPDEST PUSH0 PUSH2 0xD96 DUP5 DUP3 DUP6 ADD PUSH2 0xD60 JUMP JUMPDEST SWAP2 POP POP SWAP3 SWAP2 POP POP JUMP INVALID LOG2 PUSH5 0x6970667358 0x22 SLT KECCAK256 PUSH8 0x7E9AA4CBC545D35F 0x27 0xAA 0xE0 0xF8 DUP4 PUSH8 0x26BD0207637F146F 0xE5 TLOAD EXTCODECOPY SWAP5 0xC1 0x2E PUSH25 0x269264736F6C634300081A0033000000000000000000000000 "
				},
				"gasEstimates": {
					"creation": {
						"codeDepositCost": "708200",
						"executionCost": "25004",
						"totalCost": "733204"
					},
					"external": {
						"EnterPlayer()": "infinite",
						"Manager()": "2549",
						"PickWinnerInLottery()": "infinite",
						"getPlayer()": "infinite",
						"palyer(uint256)": "5010"
					},
					"internal": {
						"RandomnumberGenerator()": "infinite",
						"alreadyEntered()": "infinite"
					}
				},
				"methodIdentifiers": {
					"EnterPlayer()": "50bed4a1",
					"Manager()": "78357e53",
					"PickWinnerInLottery()": "19974b37",
					"getPlayer()": "3308f42d",
					"palyer(uint256)": "f8edfc32"
				}
			},
			"storageLayout": {
				"storage": [
					{
						"astId": 3,
						"contract": "contracts/Lottery.sol:LotteryContract",
						"label": "Manager",
						"offset": 0,
						"slot": "0",
						"type": "t_address"
					},
					{
						"astId": 6,
						"contract": "contracts/Lottery.sol:LotteryContract",
						"label": "palyer",
						"offset": 0,
						"slot": "1",
						"type": "t_array(t_address_payable)dyn_storage"
					}
				],
				"types": {
					"t_address": {
						"encoding": "inplace",
						"label": "address",
						"numberOfBytes": "20"
					},
					"t_address_payable": {
						"encoding": "inplace",
						"label": "address payable",
						"numberOfBytes": "20"
					},
					"t_array(t_address_payable)dyn_storage": {
						"base": "t_address_payable",
						"encoding": "dynamic_array",
						"label": "address payable[]",
						"numberOfBytes": "32"
					}
				}
			},
			"userdoc": {
				"kind": "user",
				"methods": {},
				"version": 1
			}
		}
	}
}